{
  "_format": "hh-sol-artifact-1",
  "contractName": "IVP1155",
  "sourceName": "contracts/IVP1155.sol",
  "abi": [
    {
      "inputs": [],
      "stateMutability": "nonpayable",
      "type": "constructor"
    },
    {
      "anonymous": false,
      "inputs": [
        {
          "indexed": true,
          "internalType": "address",
          "name": "account",
          "type": "address"
        },
        {
          "indexed": true,
          "internalType": "address",
          "name": "operator",
          "type": "address"
        },
        {
          "indexed": false,
          "internalType": "bool",
          "name": "approved",
          "type": "bool"
        }
      ],
      "name": "ApprovalForAll",
      "type": "event"
    },
    {
      "anonymous": false,
      "inputs": [
        {
          "indexed": true,
          "internalType": "address",
          "name": "previousOwner",
          "type": "address"
        },
        {
          "indexed": true,
          "internalType": "address",
          "name": "newOwner",
          "type": "address"
        }
      ],
      "name": "OwnershipTransferred",
      "type": "event"
    },
    {
      "anonymous": false,
      "inputs": [
        {
          "indexed": false,
          "internalType": "address",
          "name": "account",
          "type": "address"
        }
      ],
      "name": "Paused",
      "type": "event"
    },
    {
      "anonymous": false,
      "inputs": [
        {
          "indexed": true,
          "internalType": "address",
          "name": "operator",
          "type": "address"
        },
        {
          "indexed": true,
          "internalType": "address",
          "name": "from",
          "type": "address"
        },
        {
          "indexed": true,
          "internalType": "address",
          "name": "to",
          "type": "address"
        },
        {
          "indexed": false,
          "internalType": "uint256[]",
          "name": "ids",
          "type": "uint256[]"
        },
        {
          "indexed": false,
          "internalType": "uint256[]",
          "name": "values",
          "type": "uint256[]"
        }
      ],
      "name": "TransferBatch",
      "type": "event"
    },
    {
      "anonymous": false,
      "inputs": [
        {
          "indexed": true,
          "internalType": "address",
          "name": "operator",
          "type": "address"
        },
        {
          "indexed": true,
          "internalType": "address",
          "name": "from",
          "type": "address"
        },
        {
          "indexed": true,
          "internalType": "address",
          "name": "to",
          "type": "address"
        },
        {
          "indexed": false,
          "internalType": "uint256",
          "name": "id",
          "type": "uint256"
        },
        {
          "indexed": false,
          "internalType": "uint256",
          "name": "value",
          "type": "uint256"
        }
      ],
      "name": "TransferSingle",
      "type": "event"
    },
    {
      "anonymous": false,
      "inputs": [
        {
          "indexed": false,
          "internalType": "string",
          "name": "value",
          "type": "string"
        },
        {
          "indexed": true,
          "internalType": "uint256",
          "name": "id",
          "type": "uint256"
        }
      ],
      "name": "URI",
      "type": "event"
    },
    {
      "anonymous": false,
      "inputs": [
        {
          "indexed": false,
          "internalType": "address",
          "name": "account",
          "type": "address"
        }
      ],
      "name": "Unpaused",
      "type": "event"
    },
    {
      "inputs": [
        {
          "internalType": "address",
          "name": "account",
          "type": "address"
        },
        {
          "internalType": "uint256",
          "name": "id",
          "type": "uint256"
        }
      ],
      "name": "balanceOf",
      "outputs": [
        {
          "internalType": "uint256",
          "name": "",
          "type": "uint256"
        }
      ],
      "stateMutability": "view",
      "type": "function"
    },
    {
      "inputs": [
        {
          "internalType": "address[]",
          "name": "accounts",
          "type": "address[]"
        },
        {
          "internalType": "uint256[]",
          "name": "ids",
          "type": "uint256[]"
        }
      ],
      "name": "balanceOfBatch",
      "outputs": [
        {
          "internalType": "uint256[]",
          "name": "",
          "type": "uint256[]"
        }
      ],
      "stateMutability": "view",
      "type": "function"
    },
    {
      "inputs": [
        {
          "internalType": "address[]",
          "name": "_from",
          "type": "address[]"
        },
        {
          "internalType": "address[]",
          "name": "_to",
          "type": "address[]"
        },
        {
          "internalType": "uint256[]",
          "name": "_ids",
          "type": "uint256[]"
        },
        {
          "internalType": "uint256[]",
          "name": "_amounts",
          "type": "uint256[]"
        }
      ],
      "name": "batchTransfer",
      "outputs": [],
      "stateMutability": "nonpayable",
      "type": "function"
    },
    {
      "inputs": [
        {
          "internalType": "address",
          "name": "account",
          "type": "address"
        },
        {
          "internalType": "uint256",
          "name": "id",
          "type": "uint256"
        },
        {
          "internalType": "uint256",
          "name": "value",
          "type": "uint256"
        }
      ],
      "name": "burn",
      "outputs": [],
      "stateMutability": "nonpayable",
      "type": "function"
    },
    {
      "inputs": [
        {
          "internalType": "address",
          "name": "account",
          "type": "address"
        },
        {
          "internalType": "uint256[]",
          "name": "ids",
          "type": "uint256[]"
        },
        {
          "internalType": "uint256[]",
          "name": "values",
          "type": "uint256[]"
        }
      ],
      "name": "burnBatch",
      "outputs": [],
      "stateMutability": "nonpayable",
      "type": "function"
    },
    {
      "inputs": [
        {
          "internalType": "uint256",
          "name": "id",
          "type": "uint256"
        }
      ],
      "name": "exists",
      "outputs": [
        {
          "internalType": "bool",
          "name": "",
          "type": "bool"
        }
      ],
      "stateMutability": "view",
      "type": "function"
    },
    {
      "inputs": [
        {
          "internalType": "uint256",
          "name": "_id",
          "type": "uint256"
        }
      ],
      "name": "freeze",
      "outputs": [],
      "stateMutability": "nonpayable",
      "type": "function"
    },
    {
      "inputs": [
        {
          "internalType": "uint256",
          "name": "",
          "type": "uint256"
        }
      ],
      "name": "frozen",
      "outputs": [
        {
          "internalType": "bool",
          "name": "",
          "type": "bool"
        }
      ],
      "stateMutability": "view",
      "type": "function"
    },
    {
      "inputs": [
        {
          "internalType": "string",
          "name": "_name",
          "type": "string"
        },
        {
          "internalType": "string",
          "name": "_uri",
          "type": "string"
        },
        {
          "internalType": "address",
          "name": "_owner",
          "type": "address"
        }
      ],
      "name": "initialize",
      "outputs": [],
      "stateMutability": "nonpayable",
      "type": "function"
    },
    {
      "inputs": [
        {
          "internalType": "address",
          "name": "account",
          "type": "address"
        },
        {
          "internalType": "address",
          "name": "operator",
          "type": "address"
        }
      ],
      "name": "isApprovedForAll",
      "outputs": [
        {
          "internalType": "bool",
          "name": "",
          "type": "bool"
        }
      ],
      "stateMutability": "view",
      "type": "function"
    },
    {
      "inputs": [
        {
          "internalType": "address",
          "name": "account",
          "type": "address"
        },
        {
          "internalType": "uint256",
          "name": "id",
          "type": "uint256"
        },
        {
          "internalType": "uint256",
          "name": "amount",
          "type": "uint256"
        },
        {
          "internalType": "bytes",
          "name": "data",
          "type": "bytes"
        }
      ],
      "name": "mint",
      "outputs": [],
      "stateMutability": "nonpayable",
      "type": "function"
    },
    {
      "inputs": [
        {
          "internalType": "address",
          "name": "to",
          "type": "address"
        },
        {
          "internalType": "uint256[]",
          "name": "ids",
          "type": "uint256[]"
        },
        {
          "internalType": "uint256[]",
          "name": "amounts",
          "type": "uint256[]"
        },
        {
          "internalType": "bytes",
          "name": "data",
          "type": "bytes"
        }
      ],
      "name": "mintBatch",
      "outputs": [],
      "stateMutability": "nonpayable",
      "type": "function"
    },
    {
      "inputs": [
        {
          "internalType": "address[]",
          "name": "accounts",
          "type": "address[]"
        },
        {
          "internalType": "uint256[]",
          "name": "ids",
          "type": "uint256[]"
        },
        {
          "internalType": "uint256[]",
          "name": "amounts",
          "type": "uint256[]"
        }
      ],
      "name": "mintBatch2",
      "outputs": [],
      "stateMutability": "nonpayable",
      "type": "function"
    },
    {
      "inputs": [],
      "name": "name",
      "outputs": [
        {
          "internalType": "string",
          "name": "",
          "type": "string"
        }
      ],
      "stateMutability": "view",
      "type": "function"
    },
    {
      "inputs": [],
      "name": "owner",
      "outputs": [
        {
          "internalType": "address",
          "name": "",
          "type": "address"
        }
      ],
      "stateMutability": "view",
      "type": "function"
    },
    {
      "inputs": [],
      "name": "pause",
      "outputs": [],
      "stateMutability": "nonpayable",
      "type": "function"
    },
    {
      "inputs": [],
      "name": "paused",
      "outputs": [
        {
          "internalType": "bool",
          "name": "",
          "type": "bool"
        }
      ],
      "stateMutability": "view",
      "type": "function"
    },
    {
      "inputs": [],
      "name": "renounceOwnership",
      "outputs": [],
      "stateMutability": "nonpayable",
      "type": "function"
    },
    {
      "inputs": [
        {
          "internalType": "address",
          "name": "from",
          "type": "address"
        },
        {
          "internalType": "address",
          "name": "to",
          "type": "address"
        },
        {
          "internalType": "uint256[]",
          "name": "ids",
          "type": "uint256[]"
        },
        {
          "internalType": "uint256[]",
          "name": "amounts",
          "type": "uint256[]"
        },
        {
          "internalType": "bytes",
          "name": "data",
          "type": "bytes"
        }
      ],
      "name": "safeBatchTransferFrom",
      "outputs": [],
      "stateMutability": "nonpayable",
      "type": "function"
    },
    {
      "inputs": [
        {
          "internalType": "address",
          "name": "from",
          "type": "address"
        },
        {
          "internalType": "address",
          "name": "to",
          "type": "address"
        },
        {
          "internalType": "uint256",
          "name": "id",
          "type": "uint256"
        },
        {
          "internalType": "uint256",
          "name": "amount",
          "type": "uint256"
        },
        {
          "internalType": "bytes",
          "name": "data",
          "type": "bytes"
        }
      ],
      "name": "safeTransferFrom",
      "outputs": [],
      "stateMutability": "nonpayable",
      "type": "function"
    },
    {
      "inputs": [
        {
          "internalType": "address",
          "name": "operator",
          "type": "address"
        },
        {
          "internalType": "bool",
          "name": "approved",
          "type": "bool"
        }
      ],
      "name": "setApprovalForAll",
      "outputs": [],
      "stateMutability": "nonpayable",
      "type": "function"
    },
    {
      "inputs": [
        {
          "internalType": "string",
          "name": "newuri",
          "type": "string"
        }
      ],
      "name": "setURI",
      "outputs": [],
      "stateMutability": "nonpayable",
      "type": "function"
    },
    {
      "inputs": [
        {
          "internalType": "bytes4",
          "name": "interfaceId",
          "type": "bytes4"
        }
      ],
      "name": "supportsInterface",
      "outputs": [
        {
          "internalType": "bool",
          "name": "",
          "type": "bool"
        }
      ],
      "stateMutability": "view",
      "type": "function"
    },
    {
      "inputs": [
        {
          "internalType": "uint256",
          "name": "id",
          "type": "uint256"
        }
      ],
      "name": "totalSupply",
      "outputs": [
        {
          "internalType": "uint256",
          "name": "",
          "type": "uint256"
        }
      ],
      "stateMutability": "view",
      "type": "function"
    },
    {
      "inputs": [
        {
          "internalType": "address",
          "name": "newOwner",
          "type": "address"
        }
      ],
      "name": "transferOwnership",
      "outputs": [],
      "stateMutability": "nonpayable",
      "type": "function"
    },
    {
      "inputs": [
        {
          "internalType": "uint256",
          "name": "_id",
          "type": "uint256"
        }
      ],
      "name": "unfreeze",
      "outputs": [],
      "stateMutability": "nonpayable",
      "type": "function"
    },
    {
      "inputs": [],
      "name": "unpause",
      "outputs": [],
      "stateMutability": "nonpayable",
      "type": "function"
    },
    {
      "inputs": [
        {
          "internalType": "uint256",
          "name": "_id",
          "type": "uint256"
        }
      ],
      "name": "uri",
      "outputs": [
        {
          "internalType": "string",
          "name": "",
          "type": "string"
        }
      ],
      "stateMutability": "view",
      "type": "function"
    }
  ],
  "bytecode": "0x608060405234801561001057600080fd5b5061310a806100206000396000f3fe608060405234801561001057600080fd5b50600436106101c35760003560e01c8063715018a6116100f9578063bd85b03911610097578063e9ac044011610071578063e9ac0440146103ea578063f242432a1461040e578063f2fde38b14610421578063f5298aca1461043457600080fd5b8063bd85b0391461037a578063d7a78db81461039b578063e985e9c5146103ae57600080fd5b80638da5cb5b116100d35780638da5cb5b14610326578063996041b014610341578063a22cb46514610354578063a904509c1461036757600080fd5b8063715018a614610303578063731133e91461030b5780638456cb591461031e57600080fd5b80632eb2c2d6116101665780634f558e79116101405780634f558e79146102af5780635c975abb146102d25780636623fc46146102dd5780636b20c454146102f057600080fd5b80632eb2c2d6146102745780633f4ba83a146102875780634e1273f41461028f57600080fd5b806306fdde03116101a257806306fdde0314610226578063077f224a1461023b5780630e89341c1461024e5780631f7fdffa1461026157600080fd5b8062fdd58e146101c857806301ffc9a7146101ee57806302fe530514610211575b600080fd5b6101db6101d636600461278f565b610447565b6040519081526020015b60405180910390f35b6102016101fc366004612982565b6104e0565b60405190151581526020016101e5565b61022461021f3660046129ba565b610532565b005b61022e610568565b6040516101e59190612bed565b6102246102493660046129ec565b6105f7565b61022e61025c366004612a5c565b6106a5565b61022461026f3660046126c1565b6106e0565b61022461028236600461254a565b610716565b6102246107ad565b6102a261029d3660046128d7565b6107e1565b6040516101e59190612bac565b6102016102bd366004612a5c565b600090815261012d6020526040902054151590565b60c95460ff16610201565b6102246102eb366004612a5c565b610942565b6102246102fe366004612651565b6109d2565b610224610a1a565b6102246103193660046127ea565b610a4e565b610224610b18565b6097546040516001600160a01b0390911681526020016101e5565b61022461034f36600461283c565b610b4a565b610224610362366004612755565b610c8c565b610224610375366004612937565b610c9b565b6101db610388366004612a5c565b600090815261012d602052604090205490565b6102246103a9366004612a5c565b610dd2565b6102016103bc366004612518565b6001600160a01b03918216600090815260666020908152604080832093909416825291909152205460ff1690565b6102016103f8366004612a5c565b6101606020526000908152604090205460ff1681565b61022461041c3660046125ef565b610e69565b61022461042f3660046124f7565b610eae565b6102246104423660046127b8565b610f46565b60006001600160a01b0383166104b85760405162461bcd60e51b815260206004820152602b60248201527f455243313135353a2062616c616e636520717565727920666f7220746865207a60448201526a65726f206164647265737360a81b60648201526084015b60405180910390fd5b5060009081526065602090815260408083206001600160a01b03949094168352929052205490565b60006001600160e01b03198216636cdb3d1360e11b148061051157506001600160e01b031982166303a24d0760e21b145b8061052c57506301ffc9a760e01b6001600160e01b03198316145b92915050565b6097546001600160a01b0316331461055c5760405162461bcd60e51b81526004016104af90612df5565b61056581610f89565b50565b61015f805461057690612f45565b80601f01602080910402602001604051908101604052809291908181526020018280546105a290612f45565b80156105ef5780601f106105c4576101008083540402835291602001916105ef565b820191906000526020600020905b8154815290600101906020018083116105d257829003601f168201915b505050505081565b600054610100900460ff1680610610575060005460ff16155b61062c5760405162461bcd60e51b81526004016104af90612d1a565b600054610100900460ff1615801561064e576000805461ffff19166101011790555b61065782610f9c565b61066083610fee565b610668611073565b6106706110ee565b6106786110ee565b835161068c9061015f9060208701906122f2565b50801561069f576000805461ff00191690555b50505050565b60606106b08261115d565b6106b9836111f1565b6040516020016106ca929190612ada565b6040516020818303038152906040529050919050565b6097546001600160a01b0316331461070a5760405162461bcd60e51b81526004016104af90612df5565b61069f84848484611312565b6001600160a01b038516331480610732575061073285336103bc565b6107995760405162461bcd60e51b815260206004820152603260248201527f455243313135353a207472616e736665722063616c6c6572206973206e6f74206044820152711bdddb995c881b9bdc88185c1c1c9bdd995960721b60648201526084016104af565b6107a68585858585611489565b5050505050565b6097546001600160a01b031633146107d75760405162461bcd60e51b81526004016104af90612df5565b6107df611652565b565b606081518351146108465760405162461bcd60e51b815260206004820152602960248201527f455243313135353a206163636f756e747320616e6420696473206c656e677468604482015268040dad2e6dac2e8c6d60bb1b60648201526084016104af565b600083516001600160401b0381111561086f57634e487b7160e01b600052604160045260246000fd5b604051908082528060200260200182016040528015610898578160200160208202803683370190505b50905060005b845181101561093a576108ff8582815181106108ca57634e487b7160e01b600052603260045260246000fd5b60200260200101518583815181106108f257634e487b7160e01b600052603260045260246000fd5b6020026020010151610447565b82828151811061091f57634e487b7160e01b600052603260045260246000fd5b602090810291909101015261093381612fac565b905061089e565b509392505050565b6097546001600160a01b0316331461096c5760405162461bcd60e51b81526004016104af90612df5565b6000818152610160602052604090205460ff166109b95760405162461bcd60e51b815260206004820152600b60248201526a1b9bdd08199c99595e995960aa1b60448201526064016104af565b600090815261016060205260409020805460ff19169055565b6001600160a01b0383163314806109ee57506109ee83336103bc565b610a0a5760405162461bcd60e51b81526004016104af90612c8c565b610a158383836116e5565b505050565b6097546001600160a01b03163314610a445760405162461bcd60e51b81526004016104af90612df5565b6107df6000610f9c565b33610a616097546001600160a01b031690565b6001600160a01b031614610b0c576001600160a01b0384163314610ac05760405162461bcd60e51b815260206004820152601660248201527563616e206e6f74206d696e7420746f206f746865727360501b60448201526064016104af565b600083815261012d602052604090205415610b0c5760405162461bcd60e51b815260206004820152600c60248201526b746f6b656e2065786973747360a01b60448201526064016104af565b61069f84848484611892565b6097546001600160a01b03163314610b425760405162461bcd60e51b81526004016104af90612df5565b6107df61196a565b82518451148015610b5c575081518351145b8015610b69575080518251145b610ba95760405162461bcd60e51b8152602060048201526011602482015270696e76616c696420617267756d656e747360781b60448201526064016104af565b60005b84518110156107a657610c7a858281518110610bd857634e487b7160e01b600052603260045260246000fd5b6020026020010151858381518110610c0057634e487b7160e01b600052603260045260246000fd5b6020026020010151858481518110610c2857634e487b7160e01b600052603260045260246000fd5b6020026020010151858581518110610c5057634e487b7160e01b600052603260045260246000fd5b6020026020010151604051806040016040528060048152602001630307830360e41b815250610e69565b80610c8481612fac565b915050610bac565b610c973383836119e5565b5050565b6097546001600160a01b03163314610cc55760405162461bcd60e51b81526004016104af90612df5565b81518351148015610cd7575080518251145b610d175760405162461bcd60e51b8152602060048201526011602482015270696e76616c696420617267756d656e747360781b60448201526064016104af565b60005b825181101561069f57610dc0848281518110610d4657634e487b7160e01b600052603260045260246000fd5b6020026020010151848381518110610d6e57634e487b7160e01b600052603260045260246000fd5b6020026020010151848481518110610d9657634e487b7160e01b600052603260045260246000fd5b6020026020010151604051806040016040528060048152602001630307830360e41b815250611892565b80610dca81612fac565b915050610d1a565b6097546001600160a01b03163314610dfc5760405162461bcd60e51b81526004016104af90612df5565b6000818152610160602052604090205460ff1615610e4d5760405162461bcd60e51b815260206004820152600e60248201526d185b1c99585908199c99595e995960921b60448201526064016104af565b600090815261016060205260409020805460ff19166001179055565b6001600160a01b038516331480610e855750610e8585336103bc565b610ea15760405162461bcd60e51b81526004016104af90612c8c565b6107a68585858585611ac6565b6097546001600160a01b03163314610ed85760405162461bcd60e51b81526004016104af90612df5565b6001600160a01b038116610f3d5760405162461bcd60e51b815260206004820152602660248201527f4f776e61626c653a206e6577206f776e657220697320746865207a65726f206160448201526564647265737360d01b60648201526084016104af565b61056581610f9c565b6001600160a01b038316331480610f625750610f6283336103bc565b610f7e5760405162461bcd60e51b81526004016104af90612c8c565b610a15838383611be7565b8051610c979060679060208401906122f2565b609780546001600160a01b038381166001600160a01b0319831681179093556040519116919082907f8be0079c531659141344cd1fd0a4f28419497f9722a3daafe3b4186f6b6457e090600090a35050565b600054610100900460ff1680611007575060005460ff16155b6110235760405162461bcd60e51b81526004016104af90612d1a565b600054610100900460ff16158015611045576000805461ffff19166101011790555b61104d611cec565b611055611cec565b61105e82611d56565b8015610c97576000805461ff00191690555050565b600054610100900460ff168061108c575060005460ff16155b6110a85760405162461bcd60e51b81526004016104af90612d1a565b600054610100900460ff161580156110ca576000805461ffff19166101011790555b6110d2611cec565b6110da611db6565b8015610565576000805461ff001916905550565b600054610100900460ff1680611107575060005460ff16155b6111235760405162461bcd60e51b81526004016104af90612d1a565b600054610100900460ff16158015611145576000805461ffff19166101011790555b61114d611cec565b611155611cec565b6110da611cec565b60606067805461116c90612f45565b80601f016020809104026020016040519081016040528092919081815260200182805461119890612f45565b80156111e55780601f106111ba576101008083540402835291602001916111e5565b820191906000526020600020905b8154815290600101906020018083116111c857829003601f168201915b50505050509050919050565b6060816112155750506040805180820190915260018152600360fc1b602082015290565b8160005b811561123f578061122981612fac565b91506112389050600a83612eee565b9150611219565b6000816001600160401b0381111561126757634e487b7160e01b600052604160045260246000fd5b6040519080825280601f01601f191660200182016040528015611291576020820181803683370190505b5090505b841561130a576112a6600183612f02565b91506112b3600a86612fc7565b6112be906030612ed6565b60f81b8183815181106112e157634e487b7160e01b600052603260045260246000fd5b60200101906001600160f81b031916908160001a905350611303600a86612eee565b9450611295565b949350505050565b6001600160a01b0384166113385760405162461bcd60e51b81526004016104af90612e72565b81518351146113595760405162461bcd60e51b81526004016104af90612e2a565b3361136981600087878787611e2b565b60005b84518110156114215783818151811061139557634e487b7160e01b600052603260045260246000fd5b6020026020010151606560008784815181106113c157634e487b7160e01b600052603260045260246000fd5b602002602001015181526020019081526020016000206000886001600160a01b03166001600160a01b0316815260200190815260200160002060008282546114099190612ed6565b9091555081905061141981612fac565b91505061136c565b50846001600160a01b031660006001600160a01b0316826001600160a01b03167f4a39dc06d4c0dbc64b70af90fd698a233a518aa5d07e595d983b8c0526c8f7fb8787604051611472929190612bbf565b60405180910390a46107a681600087878787611f1e565b81518351146114aa5760405162461bcd60e51b81526004016104af90612e2a565b6001600160a01b0384166114d05760405162461bcd60e51b81526004016104af90612cd5565b336114df818787878787611e2b565b60005b84518110156115e457600085828151811061150d57634e487b7160e01b600052603260045260246000fd5b60200260200101519050600085838151811061153957634e487b7160e01b600052603260045260246000fd5b60209081029190910181015160008481526065835260408082206001600160a01b038e16835290935291909120549091508181101561158a5760405162461bcd60e51b81526004016104af90612dab565b60008381526065602090815260408083206001600160a01b038e8116855292528083208585039055908b168252812080548492906115c9908490612ed6565b92505081905550505050806115dd90612fac565b90506114e2565b50846001600160a01b0316866001600160a01b0316826001600160a01b03167f4a39dc06d4c0dbc64b70af90fd698a233a518aa5d07e595d983b8c0526c8f7fb8787604051611634929190612bbf565b60405180910390a461164a818787878787611f1e565b505050505050565b60c95460ff1661169b5760405162461bcd60e51b815260206004820152601460248201527314185d5cd8589b194e881b9bdd081c185d5cd95960621b60448201526064016104af565b60c9805460ff191690557f5db9ee0a495bf2e6ff9c91a7834c1ba4fdd244a5e8aa4e537bd38aeae4b073aa335b6040516001600160a01b03909116815260200160405180910390a1565b6001600160a01b03831661170b5760405162461bcd60e51b81526004016104af90612d68565b805182511461172c5760405162461bcd60e51b81526004016104af90612e2a565b600033905061174f81856000868660405180602001604052806000815250611e2b565b60005b835181101561183357600084828151811061177d57634e487b7160e01b600052603260045260246000fd5b6020026020010151905060008483815181106117a957634e487b7160e01b600052603260045260246000fd5b60209081029190910181015160008481526065835260408082206001600160a01b038c1683529093529190912054909150818110156117fa5760405162461bcd60e51b81526004016104af90612c48565b60009283526065602090815260408085206001600160a01b038b168652909152909220910390558061182b81612fac565b915050611752565b5060006001600160a01b0316846001600160a01b0316826001600160a01b03167f4a39dc06d4c0dbc64b70af90fd698a233a518aa5d07e595d983b8c0526c8f7fb8686604051611884929190612bbf565b60405180910390a450505050565b6001600160a01b0384166118b85760405162461bcd60e51b81526004016104af90612e72565b336118d8816000876118c988612089565b6118d288612089565b87611e2b565b60008481526065602090815260408083206001600160a01b03891684529091528120805485929061190a908490612ed6565b909155505060408051858152602081018590526001600160a01b0380881692600092918516917fc3d58168c5ae7397731d063d5bbf3d657854427343f4c083240f7aacaa2d0f62910160405180910390a46107a6816000878787876120e2565b60c95460ff16156119b05760405162461bcd60e51b815260206004820152601060248201526f14185d5cd8589b194e881c185d5cd95960821b60448201526064016104af565b60c9805460ff191660011790557f62e78cea01bee320cd4e420270b5ea74000d11b0c9f74754ebdbfc544b05a2586116c83390565b816001600160a01b0316836001600160a01b03161415611a595760405162461bcd60e51b815260206004820152602960248201527f455243313135353a2073657474696e6720617070726f76616c20737461747573604482015268103337b91039b2b63360b91b60648201526084016104af565b6001600160a01b03838116600081815260666020908152604080832094871680845294825291829020805460ff191686151590811790915591519182527f17307eab39ab6107e8899845ad3d59bd9653f200f220920489ca2b5937696c31910160405180910390a3505050565b6001600160a01b038416611aec5760405162461bcd60e51b81526004016104af90612cd5565b33611afc8187876118c988612089565b60008481526065602090815260408083206001600160a01b038a16845290915290205483811015611b3f5760405162461bcd60e51b81526004016104af90612dab565b60008581526065602090815260408083206001600160a01b038b8116855292528083208785039055908816825281208054869290611b7e908490612ed6565b909155505060408051868152602081018690526001600160a01b03808916928a821692918616917fc3d58168c5ae7397731d063d5bbf3d657854427343f4c083240f7aacaa2d0f62910160405180910390a4611bde8288888888886120e2565b50505050505050565b6001600160a01b038316611c0d5760405162461bcd60e51b81526004016104af90612d68565b33611c3c81856000611c1e87612089565b611c2787612089565b60405180602001604052806000815250611e2b565b60008381526065602090815260408083206001600160a01b038816845290915290205482811015611c7f5760405162461bcd60e51b81526004016104af90612c48565b60008481526065602090815260408083206001600160a01b03898116808652918452828520888703905582518981529384018890529092908616917fc3d58168c5ae7397731d063d5bbf3d657854427343f4c083240f7aacaa2d0f62910160405180910390a45050505050565b600054610100900460ff1680611d05575060005460ff16155b611d215760405162461bcd60e51b81526004016104af90612d1a565b600054610100900460ff161580156110da576000805461ffff19166101011790558015610565576000805461ff001916905550565b600054610100900460ff1680611d6f575060005460ff16155b611d8b5760405162461bcd60e51b81526004016104af90612d1a565b600054610100900460ff16158015611dad576000805461ffff19166101011790555b61105e82610f89565b600054610100900460ff1680611dcf575060005460ff16155b611deb5760405162461bcd60e51b81526004016104af90612d1a565b600054610100900460ff16158015611e0d576000805461ffff19166101011790555b60c9805460ff191690558015610565576000805461ff001916905550565b60c95460ff1615611e715760405162461bcd60e51b815260206004820152601060248201526f14185d5cd8589b194e881c185d5cd95960821b60448201526064016104af565b60005b8351811015611f0f576101606000858381518110611ea257634e487b7160e01b600052603260045260246000fd5b60209081029190910181015182528101919091526040016000205460ff1615611efd5760405162461bcd60e51b815260206004820152600d60248201526c1d1bdad95b88199c99595e9959609a1b60448201526064016104af565b80611f0781612fac565b915050611e74565b5061164a8686868686866121ac565b6001600160a01b0384163b1561164a5760405163bc197c8160e01b81526001600160a01b0385169063bc197c8190611f629089908990889088908890600401612b09565b602060405180830381600087803b158015611f7c57600080fd5b505af1925050508015611fac575060408051601f3d908101601f19168201909252611fa99181019061299e565b60015b61205957611fb861301d565b806308c379a01415611ff25750611fcd613035565b80611fd85750611ff4565b8060405162461bcd60e51b81526004016104af9190612bed565b505b60405162461bcd60e51b815260206004820152603460248201527f455243313135353a207472616e7366657220746f206e6f6e20455243313135356044820152732932b1b2b4bb32b91034b6b83632b6b2b73a32b960611b60648201526084016104af565b6001600160e01b0319811663bc197c8160e01b14611bde5760405162461bcd60e51b81526004016104af90612c00565b604080516001808252818301909252606091600091906020808301908036833701905050905082816000815181106120d157634e487b7160e01b600052603260045260246000fd5b602090810291909101015292915050565b6001600160a01b0384163b1561164a5760405163f23a6e6160e01b81526001600160a01b0385169063f23a6e61906121269089908990889088908890600401612b67565b602060405180830381600087803b15801561214057600080fd5b505af1925050508015612170575060408051601f3d908101601f1916820190925261216d9181019061299e565b60015b61217c57611fb861301d565b6001600160e01b0319811663f23a6e6160e01b14611bde5760405162461bcd60e51b81526004016104af90612c00565b6001600160a01b0385166122505760005b835181101561224e578281815181106121e657634e487b7160e01b600052603260045260246000fd5b602002602001015161012d600086848151811061221357634e487b7160e01b600052603260045260246000fd5b6020026020010151815260200190815260200160002060008282546122389190612ed6565b90915550612247905081612fac565b90506121bd565b505b6001600160a01b03841661164a5760005b8351811015611bde5782818151811061228a57634e487b7160e01b600052603260045260246000fd5b602002602001015161012d60008684815181106122b757634e487b7160e01b600052603260045260246000fd5b6020026020010151815260200190815260200160002060008282546122dc9190612f02565b909155506122eb905081612fac565b9050612261565b8280546122fe90612f45565b90600052602060002090601f0160209004810192826123205760008555612366565b82601f1061233957805160ff1916838001178555612366565b82800160010185558215612366579182015b8281111561236657825182559160200191906001019061234b565b50612372929150612376565b5090565b5b808211156123725760008155600101612377565b80356001600160a01b03811681146123a257600080fd5b919050565b600082601f8301126123b7578081fd5b813560206123c482612eb3565b6040516123d18282612f80565b8381528281019150858301600585901b870184018810156123f0578586fd5b855b85811015612415576124038261238b565b845292840192908401906001016123f2565b5090979650505050505050565b600082601f830112612432578081fd5b8135602061243f82612eb3565b60405161244c8282612f80565b8381528281019150858301600585901b8701840188101561246b578586fd5b855b858110156124155781358452928401929084019060010161246d565b600082601f830112612499578081fd5b81356001600160401b038111156124b2576124b2613007565b6040516124c9601f8301601f191660200182612f80565b8181528460208386010111156124dd578283fd5b816020850160208301379081016020019190915292915050565b600060208284031215612508578081fd5b6125118261238b565b9392505050565b6000806040838503121561252a578081fd5b6125338361238b565b91506125416020840161238b565b90509250929050565b600080600080600060a08688031215612561578081fd5b61256a8661238b565b94506125786020870161238b565b935060408601356001600160401b0380821115612593578283fd5b61259f89838a01612422565b945060608801359150808211156125b4578283fd5b6125c089838a01612422565b935060808801359150808211156125d5578283fd5b506125e288828901612489565b9150509295509295909350565b600080600080600060a08688031215612606578081fd5b61260f8661238b565b945061261d6020870161238b565b9350604086013592506060860135915060808601356001600160401b03811115612645578182fd5b6125e288828901612489565b600080600060608486031215612665578283fd5b61266e8461238b565b925060208401356001600160401b0380821115612689578384fd5b61269587838801612422565b935060408601359150808211156126aa578283fd5b506126b786828701612422565b9150509250925092565b600080600080608085870312156126d6578384fd5b6126df8561238b565b935060208501356001600160401b03808211156126fa578485fd5b61270688838901612422565b9450604087013591508082111561271b578384fd5b61272788838901612422565b9350606087013591508082111561273c578283fd5b5061274987828801612489565b91505092959194509250565b60008060408385031215612767578182fd5b6127708361238b565b915060208301358015158114612784578182fd5b809150509250929050565b600080604083850312156127a1578182fd5b6127aa8361238b565b946020939093013593505050565b6000806000606084860312156127cc578081fd5b6127d58461238b565b95602085013595506040909401359392505050565b600080600080608085870312156127ff578182fd5b6128088561238b565b9350602085013592506040850135915060608501356001600160401b03811115612830578182fd5b61274987828801612489565b60008060008060808587031215612851578182fd5b84356001600160401b0380821115612867578384fd5b612873888389016123a7565b95506020870135915080821115612888578384fd5b612894888389016123a7565b945060408701359150808211156128a9578384fd5b6128b588838901612422565b935060608701359150808211156128ca578283fd5b5061274987828801612422565b600080604083850312156128e9578182fd5b82356001600160401b03808211156128ff578384fd5b61290b868387016123a7565b93506020850135915080821115612920578283fd5b5061292d85828601612422565b9150509250929050565b60008060006060848603121561294b578081fd5b83356001600160401b0380821115612961578283fd5b61296d878388016123a7565b94506020860135915080821115612689578283fd5b600060208284031215612993578081fd5b8135612511816130be565b6000602082840312156129af578081fd5b8151612511816130be565b6000602082840312156129cb578081fd5b81356001600160401b038111156129e0578182fd5b61130a84828501612489565b600080600060608486031215612a00578081fd5b83356001600160401b0380821115612a16578283fd5b612a2287838801612489565b94506020860135915080821115612a37578283fd5b50612a4486828701612489565b925050612a536040850161238b565b90509250925092565b600060208284031215612a6d578081fd5b5035919050565b6000815180845260208085019450808401835b83811015612aa357815187529582019590820190600101612a87565b509495945050505050565b60008151808452612ac6816020860160208601612f19565b601f01601f19169290920160200192915050565b60008351612aec818460208801612f19565b835190830190612b00818360208801612f19565b01949350505050565b6001600160a01b0386811682528516602082015260a060408201819052600090612b3590830186612a74565b8281036060840152612b478186612a74565b90508281036080840152612b5b8185612aae565b98975050505050505050565b6001600160a01b03868116825285166020820152604081018490526060810183905260a060808201819052600090612ba190830184612aae565b979650505050505050565b6020815260006125116020830184612a74565b604081526000612bd26040830185612a74565b8281036020840152612be48185612a74565b95945050505050565b6020815260006125116020830184612aae565b60208082526028908201527f455243313135353a204552433131353552656365697665722072656a656374656040820152676420746f6b656e7360c01b606082015260800190565b60208082526024908201527f455243313135353a206275726e20616d6f756e7420657863656564732062616c604082015263616e636560e01b606082015260800190565b60208082526029908201527f455243313135353a2063616c6c6572206973206e6f74206f776e6572206e6f7260408201526808185c1c1c9bdd995960ba1b606082015260800190565b60208082526025908201527f455243313135353a207472616e7366657220746f20746865207a65726f206164604082015264647265737360d81b606082015260800190565b6020808252602e908201527f496e697469616c697a61626c653a20636f6e747261637420697320616c72656160408201526d191e481a5b9a5d1a585b1a5e995960921b606082015260800190565b60208082526023908201527f455243313135353a206275726e2066726f6d20746865207a65726f206164647260408201526265737360e81b606082015260800190565b6020808252602a908201527f455243313135353a20696e73756666696369656e742062616c616e636520666f60408201526939103a3930b739b332b960b11b606082015260800190565b6020808252818101527f4f776e61626c653a2063616c6c6572206973206e6f7420746865206f776e6572604082015260600190565b60208082526028908201527f455243313135353a2069647320616e6420616d6f756e7473206c656e677468206040820152670dad2e6dac2e8c6d60c31b606082015260800190565b60208082526021908201527f455243313135353a206d696e7420746f20746865207a65726f206164647265736040820152607360f81b606082015260800190565b60006001600160401b03821115612ecc57612ecc613007565b5060051b60200190565b60008219821115612ee957612ee9612fdb565b500190565b600082612efd57612efd612ff1565b500490565b600082821015612f1457612f14612fdb565b500390565b60005b83811015612f34578181015183820152602001612f1c565b8381111561069f5750506000910152565b600181811c90821680612f5957607f821691505b60208210811415612f7a57634e487b7160e01b600052602260045260246000fd5b50919050565b601f8201601f191681016001600160401b0381118282101715612fa557612fa5613007565b6040525050565b6000600019821415612fc057612fc0612fdb565b5060010190565b600082612fd657612fd6612ff1565b500690565b634e487b7160e01b600052601160045260246000fd5b634e487b7160e01b600052601260045260246000fd5b634e487b7160e01b600052604160045260246000fd5b600060033d111561303257600481823e5160e01c5b90565b600060443d10156130435790565b6040516003193d81016004833e81513d6001600160401b03816024840111818411171561307257505050505090565b828501915081518181111561308a5750505050505090565b843d87010160208285010111156130a45750505050505090565b6130b360208286010187612f80565b509095945050505050565b6001600160e01b03198116811461056557600080fdfea2646970667358221220bf6975112be4c63655a04d6b409c223fe3e9c6b32242236e88a6e9f312ce087964736f6c63430008040033",
  "linkReferences": {},
  "deployedLinkReferences": {}
}