{
  "_format": "hh-sol-artifact-1",
  "contractName": "IVP721",
  "sourceName": "contracts/IVP721.sol",
  "abi": [
    {
      "inputs": [],
      "stateMutability": "nonpayable",
      "type": "constructor"
    },
    {
      "anonymous": false,
      "inputs": [
        {
          "indexed": true,
          "internalType": "address",
          "name": "owner",
          "type": "address"
        },
        {
          "indexed": true,
          "internalType": "address",
          "name": "approved",
          "type": "address"
        },
        {
          "indexed": true,
          "internalType": "uint256",
          "name": "tokenId",
          "type": "uint256"
        }
      ],
      "name": "Approval",
      "type": "event"
    },
    {
      "anonymous": false,
      "inputs": [
        {
          "indexed": true,
          "internalType": "address",
          "name": "owner",
          "type": "address"
        },
        {
          "indexed": true,
          "internalType": "address",
          "name": "operator",
          "type": "address"
        },
        {
          "indexed": false,
          "internalType": "bool",
          "name": "approved",
          "type": "bool"
        }
      ],
      "name": "ApprovalForAll",
      "type": "event"
    },
    {
      "anonymous": false,
      "inputs": [
        {
          "indexed": true,
          "internalType": "address",
          "name": "previousOwner",
          "type": "address"
        },
        {
          "indexed": true,
          "internalType": "address",
          "name": "newOwner",
          "type": "address"
        }
      ],
      "name": "OwnershipTransferred",
      "type": "event"
    },
    {
      "anonymous": false,
      "inputs": [
        {
          "indexed": false,
          "internalType": "address",
          "name": "account",
          "type": "address"
        }
      ],
      "name": "Paused",
      "type": "event"
    },
    {
      "anonymous": false,
      "inputs": [
        {
          "indexed": true,
          "internalType": "address",
          "name": "from",
          "type": "address"
        },
        {
          "indexed": true,
          "internalType": "address",
          "name": "to",
          "type": "address"
        },
        {
          "indexed": true,
          "internalType": "uint256",
          "name": "tokenId",
          "type": "uint256"
        }
      ],
      "name": "Transfer",
      "type": "event"
    },
    {
      "anonymous": false,
      "inputs": [
        {
          "indexed": false,
          "internalType": "address",
          "name": "account",
          "type": "address"
        }
      ],
      "name": "Unpaused",
      "type": "event"
    },
    {
      "inputs": [],
      "name": "_uri",
      "outputs": [
        {
          "internalType": "string",
          "name": "",
          "type": "string"
        }
      ],
      "stateMutability": "view",
      "type": "function"
    },
    {
      "inputs": [
        {
          "internalType": "address",
          "name": "to",
          "type": "address"
        },
        {
          "internalType": "uint256",
          "name": "tokenId",
          "type": "uint256"
        }
      ],
      "name": "approve",
      "outputs": [],
      "stateMutability": "nonpayable",
      "type": "function"
    },
    {
      "inputs": [
        {
          "internalType": "address",
          "name": "owner",
          "type": "address"
        }
      ],
      "name": "balanceOf",
      "outputs": [
        {
          "internalType": "uint256",
          "name": "",
          "type": "uint256"
        }
      ],
      "stateMutability": "view",
      "type": "function"
    },
    {
      "inputs": [
        {
          "internalType": "address[]",
          "name": "_from",
          "type": "address[]"
        },
        {
          "internalType": "address[]",
          "name": "_to",
          "type": "address[]"
        },
        {
          "internalType": "uint256[]",
          "name": "_ids",
          "type": "uint256[]"
        }
      ],
      "name": "batchTrasfer",
      "outputs": [],
      "stateMutability": "nonpayable",
      "type": "function"
    },
    {
      "inputs": [
        {
          "internalType": "uint256",
          "name": "tokenId",
          "type": "uint256"
        }
      ],
      "name": "burn",
      "outputs": [],
      "stateMutability": "nonpayable",
      "type": "function"
    },
    {
      "inputs": [
        {
          "internalType": "uint256",
          "name": "",
          "type": "uint256"
        }
      ],
      "name": "creator",
      "outputs": [
        {
          "internalType": "address",
          "name": "",
          "type": "address"
        }
      ],
      "stateMutability": "view",
      "type": "function"
    },
    {
      "inputs": [
        {
          "internalType": "uint256",
          "name": "_id",
          "type": "uint256"
        }
      ],
      "name": "freeze",
      "outputs": [],
      "stateMutability": "nonpayable",
      "type": "function"
    },
    {
      "inputs": [
        {
          "internalType": "uint256",
          "name": "",
          "type": "uint256"
        }
      ],
      "name": "frozen",
      "outputs": [
        {
          "internalType": "bool",
          "name": "",
          "type": "bool"
        }
      ],
      "stateMutability": "view",
      "type": "function"
    },
    {
      "inputs": [
        {
          "internalType": "uint256",
          "name": "tokenId",
          "type": "uint256"
        }
      ],
      "name": "getApproved",
      "outputs": [
        {
          "internalType": "address",
          "name": "",
          "type": "address"
        }
      ],
      "stateMutability": "view",
      "type": "function"
    },
    {
      "inputs": [
        {
          "internalType": "string",
          "name": "name",
          "type": "string"
        },
        {
          "internalType": "string",
          "name": "symbol",
          "type": "string"
        },
        {
          "internalType": "string",
          "name": "uri",
          "type": "string"
        },
        {
          "internalType": "address",
          "name": "_owner",
          "type": "address"
        }
      ],
      "name": "initialize",
      "outputs": [],
      "stateMutability": "nonpayable",
      "type": "function"
    },
    {
      "inputs": [
        {
          "internalType": "address",
          "name": "owner",
          "type": "address"
        },
        {
          "internalType": "address",
          "name": "operator",
          "type": "address"
        }
      ],
      "name": "isApprovedForAll",
      "outputs": [
        {
          "internalType": "bool",
          "name": "",
          "type": "bool"
        }
      ],
      "stateMutability": "view",
      "type": "function"
    },
    {
      "inputs": [],
      "name": "name",
      "outputs": [
        {
          "internalType": "string",
          "name": "",
          "type": "string"
        }
      ],
      "stateMutability": "view",
      "type": "function"
    },
    {
      "inputs": [],
      "name": "owner",
      "outputs": [
        {
          "internalType": "address",
          "name": "",
          "type": "address"
        }
      ],
      "stateMutability": "view",
      "type": "function"
    },
    {
      "inputs": [
        {
          "internalType": "uint256",
          "name": "tokenId",
          "type": "uint256"
        }
      ],
      "name": "ownerOf",
      "outputs": [
        {
          "internalType": "address",
          "name": "",
          "type": "address"
        }
      ],
      "stateMutability": "view",
      "type": "function"
    },
    {
      "inputs": [],
      "name": "pause",
      "outputs": [],
      "stateMutability": "nonpayable",
      "type": "function"
    },
    {
      "inputs": [],
      "name": "paused",
      "outputs": [
        {
          "internalType": "bool",
          "name": "",
          "type": "bool"
        }
      ],
      "stateMutability": "view",
      "type": "function"
    },
    {
      "inputs": [],
      "name": "renounceOwnership",
      "outputs": [],
      "stateMutability": "nonpayable",
      "type": "function"
    },
    {
      "inputs": [
        {
          "internalType": "address",
          "name": "to",
          "type": "address"
        },
        {
          "internalType": "uint256",
          "name": "tokenId",
          "type": "uint256"
        },
        {
          "internalType": "string",
          "name": "uri",
          "type": "string"
        }
      ],
      "name": "safeMint",
      "outputs": [],
      "stateMutability": "nonpayable",
      "type": "function"
    },
    {
      "inputs": [
        {
          "internalType": "address",
          "name": "to",
          "type": "address"
        },
        {
          "internalType": "uint256[]",
          "name": "tokenIds",
          "type": "uint256[]"
        }
      ],
      "name": "safeMintBatch",
      "outputs": [],
      "stateMutability": "nonpayable",
      "type": "function"
    },
    {
      "inputs": [
        {
          "internalType": "address[]",
          "name": "to",
          "type": "address[]"
        },
        {
          "internalType": "uint256[]",
          "name": "tokenIds",
          "type": "uint256[]"
        }
      ],
      "name": "safeMintBatch2",
      "outputs": [],
      "stateMutability": "nonpayable",
      "type": "function"
    },
    {
      "inputs": [
        {
          "internalType": "address",
          "name": "from",
          "type": "address"
        },
        {
          "internalType": "address",
          "name": "to",
          "type": "address"
        },
        {
          "internalType": "uint256",
          "name": "tokenId",
          "type": "uint256"
        }
      ],
      "name": "safeTransferFrom",
      "outputs": [],
      "stateMutability": "nonpayable",
      "type": "function"
    },
    {
      "inputs": [
        {
          "internalType": "address",
          "name": "from",
          "type": "address"
        },
        {
          "internalType": "address",
          "name": "to",
          "type": "address"
        },
        {
          "internalType": "uint256",
          "name": "tokenId",
          "type": "uint256"
        },
        {
          "internalType": "bytes",
          "name": "_data",
          "type": "bytes"
        }
      ],
      "name": "safeTransferFrom",
      "outputs": [],
      "stateMutability": "nonpayable",
      "type": "function"
    },
    {
      "inputs": [
        {
          "internalType": "address",
          "name": "operator",
          "type": "address"
        },
        {
          "internalType": "bool",
          "name": "approved",
          "type": "bool"
        }
      ],
      "name": "setApprovalForAll",
      "outputs": [],
      "stateMutability": "nonpayable",
      "type": "function"
    },
    {
      "inputs": [
        {
          "internalType": "string",
          "name": "uri",
          "type": "string"
        }
      ],
      "name": "setBaseURI",
      "outputs": [],
      "stateMutability": "nonpayable",
      "type": "function"
    },
    {
      "inputs": [
        {
          "internalType": "bytes4",
          "name": "interfaceId",
          "type": "bytes4"
        }
      ],
      "name": "supportsInterface",
      "outputs": [
        {
          "internalType": "bool",
          "name": "",
          "type": "bool"
        }
      ],
      "stateMutability": "view",
      "type": "function"
    },
    {
      "inputs": [],
      "name": "symbol",
      "outputs": [
        {
          "internalType": "string",
          "name": "",
          "type": "string"
        }
      ],
      "stateMutability": "view",
      "type": "function"
    },
    {
      "inputs": [
        {
          "internalType": "uint256",
          "name": "index",
          "type": "uint256"
        }
      ],
      "name": "tokenByIndex",
      "outputs": [
        {
          "internalType": "uint256",
          "name": "",
          "type": "uint256"
        }
      ],
      "stateMutability": "view",
      "type": "function"
    },
    {
      "inputs": [
        {
          "internalType": "address",
          "name": "owner",
          "type": "address"
        },
        {
          "internalType": "uint256",
          "name": "index",
          "type": "uint256"
        }
      ],
      "name": "tokenOfOwnerByIndex",
      "outputs": [
        {
          "internalType": "uint256",
          "name": "",
          "type": "uint256"
        }
      ],
      "stateMutability": "view",
      "type": "function"
    },
    {
      "inputs": [
        {
          "internalType": "uint256",
          "name": "tokenId",
          "type": "uint256"
        }
      ],
      "name": "tokenURI",
      "outputs": [
        {
          "internalType": "string",
          "name": "",
          "type": "string"
        }
      ],
      "stateMutability": "view",
      "type": "function"
    },
    {
      "inputs": [],
      "name": "totalSupply",
      "outputs": [
        {
          "internalType": "uint256",
          "name": "",
          "type": "uint256"
        }
      ],
      "stateMutability": "view",
      "type": "function"
    },
    {
      "inputs": [
        {
          "internalType": "address",
          "name": "from",
          "type": "address"
        },
        {
          "internalType": "address",
          "name": "to",
          "type": "address"
        },
        {
          "internalType": "uint256",
          "name": "tokenId",
          "type": "uint256"
        }
      ],
      "name": "transferFrom",
      "outputs": [],
      "stateMutability": "nonpayable",
      "type": "function"
    },
    {
      "inputs": [
        {
          "internalType": "address",
          "name": "newOwner",
          "type": "address"
        }
      ],
      "name": "transferOwnership",
      "outputs": [],
      "stateMutability": "nonpayable",
      "type": "function"
    },
    {
      "inputs": [
        {
          "internalType": "uint256",
          "name": "_id",
          "type": "uint256"
        }
      ],
      "name": "unfreeze",
      "outputs": [],
      "stateMutability": "nonpayable",
      "type": "function"
    },
    {
      "inputs": [],
      "name": "unpause",
      "outputs": [],
      "stateMutability": "nonpayable",
      "type": "function"
    }
  ],
  "bytecode": "0x608060405234801561001057600080fd5b50612e43806100206000396000f3fe608060405234801561001057600080fd5b50600436106102065760003560e01c80635c6d8da11161011a57806395d89b41116100ad578063cd279c7c1161007c578063cd279c7c14610439578063d7a78db81461044c578063e985e9c51461045f578063e9ac04401461049b578063f2fde38b146104bf57600080fd5b806395d89b41146103f8578063a22cb46514610400578063b88d4fde14610413578063c87b56dd1461042657600080fd5b806370a08231116100e957806370a08231146103c3578063715018a6146103d65780638456cb59146103de5780638da5cb5b146103e657600080fd5b80635c6d8da11461037f5780635c975abb146103925780636352211e1461039d5780636623fc46146103b057600080fd5b806323b872dd1161019d57806342966c681161016c57806342966c68146103095780634f6ccce71461031c578063510b51581461032f578063558f93011461035957806355f804b31461036c57600080fd5b806323b872dd146102c85780632f745c59146102db5780633f4ba83a146102ee57806342842e0e146102f657600080fd5b8063095ea7b3116101d9578063095ea7b3146102885780630d859e7c1461029b5780630dccc9ad146102ae57806318160ddd146102b657600080fd5b8063014449a61461020b57806301ffc9a71461022057806306fdde0314610248578063081812fc1461025d575b600080fd5b61021e61021936600461281a565b6104d2565b005b61023361022e3660046129ef565b61056a565b60405190151581526020015b60405180910390f35b61025061057b565b60405161023f9190612b9f565b61027061026b366004612aef565b61060d565b6040516001600160a01b03909116815260200161023f565b61021e6102963660046128a0565b610695565b61021e6102a936600461291e565b6107a6565b61025061089c565b6099545b60405190815260200161023f565b61021e6102d6366004612766565b61092b565b6102ba6102e93660046128a0565b610936565b61021e6109cc565b61021e610304366004612766565b610a01565b61021e610317366004612aef565b610a1c565b6102ba61032a366004612aef565b610a97565b61027061033d366004612aef565b610193602052600090815260409020546001600160a01b031681565b61021e610367366004612998565b610b38565b61021e61037a366004612a27565b610c11565b61021e61038d366004612a5a565b610c54565b60fb5460ff16610233565b6102706103ab366004612aef565b610d0c565b61021e6103be366004612aef565b610d83565b6102ba6103d136600461271a565b610e14565b61021e610e9b565b61021e610ed0565b61012d546001600160a01b0316610270565b610250610f03565b61021e61040e366004612866565b610f12565b61021e6104213660046127a1565b610f1d565b610250610434366004612aef565b610f99565b61021e6104473660046128c9565b610fa4565b61021e61045a366004612aef565b611058565b61023361046d366004612734565b6001600160a01b039182166000908152606a6020908152604080832093909416825291909152205460ff1690565b6102336104a9366004612aef565b6101926020526000908152604090205460ff1681565b61021e6104cd36600461271a565b6110f1565b61012d546001600160a01b031633146105065760405162461bcd60e51b81526004016104fd90612c52565b60405180910390fd5b60005b8151811015610565576105538383838151811061053657634e487b7160e01b600052603260045260246000fd5b602002602001015160405180602001604052806000815250610fa4565b8061055d81612d86565b915050610509565b505050565b60006105758261118a565b92915050565b60606065805461058a90612d4b565b80601f01602080910402602001604051908101604052809291908181526020018280546105b690612d4b565b80156106035780601f106105d857610100808354040283529160200191610603565b820191906000526020600020905b8154815290600101906020018083116105e657829003601f168201915b5050505050905090565b6000610618826111af565b6106795760405162461bcd60e51b815260206004820152602c60248201527f4552433732313a20617070726f76656420717565727920666f72206e6f6e657860448201526b34b9ba32b73a103a37b5b2b760a11b60648201526084016104fd565b506000908152606960205260409020546001600160a01b031690565b60006106a082610d0c565b9050806001600160a01b0316836001600160a01b0316141561070e5760405162461bcd60e51b815260206004820152602160248201527f4552433732313a20617070726f76616c20746f2063757272656e74206f776e656044820152603960f91b60648201526084016104fd565b336001600160a01b038216148061072a575061072a813361046d565b61079c5760405162461bcd60e51b815260206004820152603860248201527f4552433732313a20617070726f76652063616c6c6572206973206e6f74206f7760448201527f6e6572206e6f7220617070726f76656420666f7220616c6c000000000000000060648201526084016104fd565b61056583836111cc565b815183511480156107b8575080518251145b6107f85760405162461bcd60e51b8152602060048201526011602482015270696e76616c696420617267756d656e747360781b60448201526064016104fd565b60005b83518110156108965761088484828151811061082757634e487b7160e01b600052603260045260246000fd5b602002602001015184838151811061084f57634e487b7160e01b600052603260045260246000fd5b602002602001015184848151811061087757634e487b7160e01b600052603260045260246000fd5b6020026020010151610a01565b8061088e81612d86565b9150506107fb565b50505050565b61019180546108aa90612d4b565b80601f01602080910402602001604051908101604052809291908181526020018280546108d690612d4b565b80156109235780601f106108f857610100808354040283529160200191610923565b820191906000526020600020905b81548152906001019060200180831161090657829003601f168201915b505050505081565b610565838383610a01565b600061094183610e14565b82106109a35760405162461bcd60e51b815260206004820152602b60248201527f455243373231456e756d657261626c653a206f776e657220696e646578206f7560448201526a74206f6620626f756e647360a81b60648201526084016104fd565b506001600160a01b03919091166000908152609760209081526040808320938352929052205490565b61012d546001600160a01b031633146109f75760405162461bcd60e51b81526004016104fd90612c52565b6109ff61123a565b565b61056583838360405180602001604052806000815250610f1d565b610a2633826112cd565b610a8b5760405162461bcd60e51b815260206004820152603060248201527f4552433732314275726e61626c653a2063616c6c6572206973206e6f74206f7760448201526f1b995c881b9bdc88185c1c1c9bdd995960821b60648201526084016104fd565b610a94816113b7565b50565b6000610aa260995490565b8210610b055760405162461bcd60e51b815260206004820152602c60248201527f455243373231456e756d657261626c653a20676c6f62616c20696e646578206f60448201526b7574206f6620626f756e647360a01b60648201526084016104fd565b60998281548110610b2657634e487b7160e01b600052603260045260246000fd5b90600052602060002001549050919050565b61012d546001600160a01b03163314610b635760405162461bcd60e51b81526004016104fd90612c52565b8051825114610ba85760405162461bcd60e51b8152602060048201526011602482015270696e76616c696420617267756d656e747360781b60448201526064016104fd565b60005b815181101561056557610bff838281518110610bd757634e487b7160e01b600052603260045260246000fd5b602002602001015183838151811061053657634e487b7160e01b600052603260045260246000fd5b80610c0981612d86565b915050610bab565b61012d546001600160a01b03163314610c3c5760405162461bcd60e51b81526004016104fd90612c52565b8051610c50906101919060208401906124e5565b5050565b600054610100900460ff1680610c6d575060005460ff16155b610c895760405162461bcd60e51b81526004016104fd90612c04565b600054610100900460ff16158015610cab576000805461ffff19166101011790555b610cb585856113c0565b610cbd611447565b610cc5611447565b610ccd6114ca565b610cd5611447565b610cde82611531565b8251610cf2906101919060208601906124e5565b508015610d05576000805461ff00191690555b5050505050565b6000818152606760205260408120546001600160a01b0316806105755760405162461bcd60e51b815260206004820152602960248201527f4552433732313a206f776e657220717565727920666f72206e6f6e657869737460448201526832b73a103a37b5b2b760b91b60648201526084016104fd565b61012d546001600160a01b03163314610dae5760405162461bcd60e51b81526004016104fd90612c52565b6000818152610192602052604090205460ff16610dfb5760405162461bcd60e51b815260206004820152600b60248201526a1b9bdd08199c99595e995960aa1b60448201526064016104fd565b600090815261019260205260409020805460ff19169055565b60006001600160a01b038216610e7f5760405162461bcd60e51b815260206004820152602a60248201527f4552433732313a2062616c616e636520717565727920666f7220746865207a65604482015269726f206164647265737360b01b60648201526084016104fd565b506001600160a01b031660009081526068602052604090205490565b61012d546001600160a01b03163314610ec65760405162461bcd60e51b81526004016104fd90612c52565b6109ff6000611531565b61012d546001600160a01b03163314610efb5760405162461bcd60e51b81526004016104fd90612c52565b6109ff611584565b60606066805461058a90612d4b565b610c503383836115ff565b610f2733836112cd565b610f8d5760405162461bcd60e51b815260206004820152603160248201527f4552433732313a207472616e736665722063616c6c6572206973206e6f74206f6044820152701ddb995c881b9bdc88185c1c1c9bdd9959607a1b60648201526084016104fd565b610896848484846116ce565b606061057582611701565b33610fb861012d546001600160a01b031690565b6001600160a01b03161480610fd557506001600160a01b03831633145b61101a5760405162461bcd60e51b815260206004820152601660248201527563616e206e6f74206d696e7420746f206f746865727360501b60448201526064016104fd565b6110248383611863565b80511561103557611035828261187d565b5060009081526101936020526040902080546001600160a01b0319163317905550565b61012d546001600160a01b031633146110835760405162461bcd60e51b81526004016104fd90612c52565b6000818152610192602052604090205460ff16156110d55760405162461bcd60e51b815260206004820152600f60248201526e185b1c9958591e48199c99595e9959608a1b60448201526064016104fd565b600090815261019260205260409020805460ff19166001179055565b61012d546001600160a01b0316331461111c5760405162461bcd60e51b81526004016104fd90612c52565b6001600160a01b0381166111815760405162461bcd60e51b815260206004820152602660248201527f4f776e61626c653a206e6577206f776e657220697320746865207a65726f206160448201526564647265737360d01b60648201526084016104fd565b610a9481611531565b60006001600160e01b0319821663780e9d6360e01b1480610575575061057582611908565b6000908152606760205260409020546001600160a01b0316151590565b600081815260696020526040902080546001600160a01b0319166001600160a01b038416908117909155819061120182610d0c565b6001600160a01b03167f8c5be1e5ebec7d5bd14f71427d1e84f3dd0314c0f7b2291e5b200ac8c7c3b92560405160405180910390a45050565b60fb5460ff166112835760405162461bcd60e51b815260206004820152601460248201527314185d5cd8589b194e881b9bdd081c185d5cd95960621b60448201526064016104fd565b60fb805460ff191690557f5db9ee0a495bf2e6ff9c91a7834c1ba4fdd244a5e8aa4e537bd38aeae4b073aa335b6040516001600160a01b03909116815260200160405180910390a1565b60006112d8826111af565b6113395760405162461bcd60e51b815260206004820152602c60248201527f4552433732313a206f70657261746f7220717565727920666f72206e6f6e657860448201526b34b9ba32b73a103a37b5b2b760a11b60648201526084016104fd565b600061134483610d0c565b9050806001600160a01b0316846001600160a01b0316148061137f5750836001600160a01b03166113748461060d565b6001600160a01b0316145b806113af57506001600160a01b038082166000908152606a602090815260408083209388168352929052205460ff165b949350505050565b610a9481611958565b600054610100900460ff16806113d9575060005460ff16155b6113f55760405162461bcd60e51b81526004016104fd90612c04565b600054610100900460ff16158015611417576000805461ffff19166101011790555b61141f611998565b611427611998565b6114318383611a02565b8015610565576000805461ff0019169055505050565b600054610100900460ff1680611460575060005460ff16155b61147c5760405162461bcd60e51b81526004016104fd90612c04565b600054610100900460ff1615801561149e576000805461ffff19166101011790555b6114a6611998565b6114ae611998565b6114b6611998565b8015610a94576000805461ff001916905550565b600054610100900460ff16806114e3575060005460ff16155b6114ff5760405162461bcd60e51b81526004016104fd90612c04565b600054610100900460ff16158015611521576000805461ffff19166101011790555b611529611998565b6114b6611a97565b61012d80546001600160a01b038381166001600160a01b0319831681179093556040519116919082907f8be0079c531659141344cd1fd0a4f28419497f9722a3daafe3b4186f6b6457e090600090a35050565b60fb5460ff16156115ca5760405162461bcd60e51b815260206004820152601060248201526f14185d5cd8589b194e881c185d5cd95960821b60448201526064016104fd565b60fb805460ff191660011790557f62e78cea01bee320cd4e420270b5ea74000d11b0c9f74754ebdbfc544b05a2586112b03390565b816001600160a01b0316836001600160a01b031614156116615760405162461bcd60e51b815260206004820152601960248201527f4552433732313a20617070726f766520746f2063616c6c65720000000000000060448201526064016104fd565b6001600160a01b038381166000818152606a6020908152604080832094871680845294825291829020805460ff191686151590811790915591519182527f17307eab39ab6107e8899845ad3d59bd9653f200f220920489ca2b5937696c31910160405180910390a3505050565b6116d9848484611b0c565b6116e584848484611cb7565b6108965760405162461bcd60e51b81526004016104fd90612bb2565b606061170c826111af565b6117725760405162461bcd60e51b815260206004820152603160248201527f45524337323155524953746f726167653a2055524920717565727920666f72206044820152703737b732bc34b9ba32b73a103a37b5b2b760791b60648201526084016104fd565b600082815260c960205260408120805461178b90612d4b565b80601f01602080910402602001604051908101604052809291908181526020018280546117b790612d4b565b80156118045780601f106117d957610100808354040283529160200191611804565b820191906000526020600020905b8154815290600101906020018083116117e757829003601f168201915b505050505090506000611815611dc4565b9050805160001415611828575092915050565b81511561185a578082604051602001611842929190612b33565b60405160208183030381529060405292505050919050565b6113af84611dd4565b610c50828260405180602001604052806000815250611e9f565b611886826111af565b6118e95760405162461bcd60e51b815260206004820152602e60248201527f45524337323155524953746f726167653a2055524920736574206f66206e6f6e60448201526d32bc34b9ba32b73a103a37b5b2b760911b60648201526084016104fd565b600082815260c9602090815260409091208251610565928401906124e5565b60006001600160e01b031982166380ac58cd60e01b148061193957506001600160e01b03198216635b5e139f60e01b145b8061057557506301ffc9a760e01b6001600160e01b0319831614610575565b61196181611ed2565b600081815260c960205260409020805461197a90612d4b565b159050610a9457600081815260c960205260408120610a9491612569565b600054610100900460ff16806119b1575060005460ff16155b6119cd5760405162461bcd60e51b81526004016104fd90612c04565b600054610100900460ff161580156114b6576000805461ffff19166101011790558015610a94576000805461ff001916905550565b600054610100900460ff1680611a1b575060005460ff16155b611a375760405162461bcd60e51b81526004016104fd90612c04565b600054610100900460ff16158015611a59576000805461ffff19166101011790555b8251611a6c9060659060208601906124e5565b508151611a809060669060208501906124e5565b508015610565576000805461ff0019169055505050565b600054610100900460ff1680611ab0575060005460ff16155b611acc5760405162461bcd60e51b81526004016104fd90612c04565b600054610100900460ff16158015611aee576000805461ffff19166101011790555b60fb805460ff191690558015610a94576000805461ff001916905550565b826001600160a01b0316611b1f82610d0c565b6001600160a01b031614611b875760405162461bcd60e51b815260206004820152602960248201527f4552433732313a207472616e73666572206f6620746f6b656e2074686174206960448201526839903737ba1037bbb760b91b60648201526084016104fd565b6001600160a01b038216611be95760405162461bcd60e51b8152602060048201526024808201527f4552433732313a207472616e7366657220746f20746865207a65726f206164646044820152637265737360e01b60648201526084016104fd565b611bf4838383611f79565b611bff6000826111cc565b6001600160a01b0383166000908152606860205260408120805460019290611c28908490612d08565b90915550506001600160a01b0382166000908152606860205260408120805460019290611c56908490612cdc565b909155505060008181526067602052604080822080546001600160a01b0319166001600160a01b0386811691821790925591518493918716917fddf252ad1be2c89b69c2b068fc378daa952ba7f163c4a11628f55a4df523b3ef91a4505050565b60006001600160a01b0384163b15611db957604051630a85bd0160e11b81526001600160a01b0385169063150b7a0290611cfb903390899088908890600401612b62565b602060405180830381600087803b158015611d1557600080fd5b505af1925050508015611d45575060408051601f3d908101601f19168201909252611d4291810190612a0b565b60015b611d9f573d808015611d73576040519150601f19603f3d011682016040523d82523d6000602084013e611d78565b606091505b508051611d975760405162461bcd60e51b81526004016104fd90612bb2565b805181602001fd5b6001600160e01b031916630a85bd0160e11b1490506113af565b506001949350505050565b6060610191805461058a90612d4b565b6060611ddf826111af565b611e435760405162461bcd60e51b815260206004820152602f60248201527f4552433732314d657461646174613a2055524920717565727920666f72206e6f60448201526e3732bc34b9ba32b73a103a37b5b2b760891b60648201526084016104fd565b6000611e4d611dc4565b90506000815111611e6d5760405180602001604052806000815250611e98565b80611e778461201a565b604051602001611e88929190612b33565b6040516020818303038152906040525b9392505050565b611ea98383612134565b611eb66000848484611cb7565b6105655760405162461bcd60e51b81526004016104fd90612bb2565b6000611edd82610d0c565b9050611eeb81600084611f79565b611ef66000836111cc565b6001600160a01b0381166000908152606860205260408120805460019290611f1f908490612d08565b909155505060008281526067602052604080822080546001600160a01b0319169055518391906001600160a01b038416907fddf252ad1be2c89b69c2b068fc378daa952ba7f163c4a11628f55a4df523b3ef908390a45050565b60fb5460ff1615611fbf5760405162461bcd60e51b815260206004820152601060248201526f14185d5cd8589b194e881c185d5cd95960821b60448201526064016104fd565b6000818152610192602052604090205460ff161561200f5760405162461bcd60e51b815260206004820152600d60248201526c1d1bdad95b88199c99595e9959609a1b60448201526064016104fd565b610565838383612273565b60608161203e5750506040805180820190915260018152600360fc1b602082015290565b8160005b8115612068578061205281612d86565b91506120619050600a83612cf4565b9150612042565b60008167ffffffffffffffff81111561209157634e487b7160e01b600052604160045260246000fd5b6040519080825280601f01601f1916602001820160405280156120bb576020820181803683370190505b5090505b84156113af576120d0600183612d08565b91506120dd600a86612da1565b6120e8906030612cdc565b60f81b81838151811061210b57634e487b7160e01b600052603260045260246000fd5b60200101906001600160f81b031916908160001a90535061212d600a86612cf4565b94506120bf565b6001600160a01b03821661218a5760405162461bcd60e51b815260206004820181905260248201527f4552433732313a206d696e7420746f20746865207a65726f206164647265737360448201526064016104fd565b612193816111af565b156121e05760405162461bcd60e51b815260206004820152601c60248201527f4552433732313a20746f6b656e20616c7265616479206d696e7465640000000060448201526064016104fd565b6121ec60008383611f79565b6001600160a01b0382166000908152606860205260408120805460019290612215908490612cdc565b909155505060008181526067602052604080822080546001600160a01b0319166001600160a01b03861690811790915590518392907fddf252ad1be2c89b69c2b068fc378daa952ba7f163c4a11628f55a4df523b3ef908290a45050565b6001600160a01b0383166122ce576122c981609980546000838152609a60205260408120829055600182018355919091527f72a152ddfb8e864297c917af52ea6c1c68aead0fee1a62673fcc7e0c94979d000155565b6122f1565b816001600160a01b0316836001600160a01b0316146122f1576122f1838261232b565b6001600160a01b03821661230857610565816123c8565b826001600160a01b0316826001600160a01b0316146105655761056582826124a1565b6000600161233884610e14565b6123429190612d08565b600083815260986020526040902054909150808214612395576001600160a01b03841660009081526097602090815260408083208584528252808320548484528184208190558352609890915290208190555b5060009182526098602090815260408084208490556001600160a01b039094168352609781528383209183525290812055565b6099546000906123da90600190612d08565b6000838152609a60205260408120546099805493945090928490811061241057634e487b7160e01b600052603260045260246000fd5b90600052602060002001549050806099838154811061243f57634e487b7160e01b600052603260045260246000fd5b6000918252602080832090910192909255828152609a9091526040808220849055858252812055609980548061248557634e487b7160e01b600052603160045260246000fd5b6001900381819060005260206000200160009055905550505050565b60006124ac83610e14565b6001600160a01b039093166000908152609760209081526040808320868452825280832085905593825260989052919091209190915550565b8280546124f190612d4b565b90600052602060002090601f0160209004810192826125135760008555612559565b82601f1061252c57805160ff1916838001178555612559565b82800160010185558215612559579182015b8281111561255957825182559160200191906001019061253e565b5061256592915061259f565b5090565b50805461257590612d4b565b6000825580601f10612585575050565b601f016020900490600052602060002090810190610a9491905b5b8082111561256557600081556001016125a0565b600067ffffffffffffffff8311156125ce576125ce612de1565b6125e1601f8401601f1916602001612c87565b90508281528383830111156125f557600080fd5b828260208301376000602084830101529392505050565b80356001600160a01b038116811461262357600080fd5b919050565b600082601f830112612638578081fd5b8135602061264d61264883612cb8565b612c87565b80838252828201915082860187848660051b890101111561266c578586fd5b855b858110156126915761267f8261260c565b8452928401929084019060010161266e565b5090979650505050505050565b600082601f8301126126ae578081fd5b813560206126be61264883612cb8565b80838252828201915082860187848660051b89010111156126dd578586fd5b855b85811015612691578135845292840192908401906001016126df565b600082601f83011261270b578081fd5b611e98838335602085016125b4565b60006020828403121561272b578081fd5b611e988261260c565b60008060408385031215612746578081fd5b61274f8361260c565b915061275d6020840161260c565b90509250929050565b60008060006060848603121561277a578081fd5b6127838461260c565b92506127916020850161260c565b9150604084013590509250925092565b600080600080608085870312156127b6578081fd5b6127bf8561260c565b93506127cd6020860161260c565b925060408501359150606085013567ffffffffffffffff8111156127ef578182fd5b8501601f810187136127ff578182fd5b61280e878235602084016125b4565b91505092959194509250565b6000806040838503121561282c578182fd5b6128358361260c565b9150602083013567ffffffffffffffff811115612850578182fd5b61285c8582860161269e565b9150509250929050565b60008060408385031215612878578182fd5b6128818361260c565b915060208301358015158114612895578182fd5b809150509250929050565b600080604083850312156128b2578182fd5b6128bb8361260c565b946020939093013593505050565b6000806000606084860312156128dd578283fd5b6128e68461260c565b925060208401359150604084013567ffffffffffffffff811115612908578182fd5b612914868287016126fb565b9150509250925092565b600080600060608486031215612932578081fd5b833567ffffffffffffffff80821115612949578283fd5b61295587838801612628565b9450602086013591508082111561296a578283fd5b61297687838801612628565b9350604086013591508082111561298b578283fd5b506129148682870161269e565b600080604083850312156129aa578182fd5b823567ffffffffffffffff808211156129c1578384fd5b6129cd86838701612628565b935060208501359150808211156129e2578283fd5b5061285c8582860161269e565b600060208284031215612a00578081fd5b8135611e9881612df7565b600060208284031215612a1c578081fd5b8151611e9881612df7565b600060208284031215612a38578081fd5b813567ffffffffffffffff811115612a4e578182fd5b6113af848285016126fb565b60008060008060808587031215612a6f578182fd5b843567ffffffffffffffff80821115612a86578384fd5b612a92888389016126fb565b95506020870135915080821115612aa7578384fd5b612ab3888389016126fb565b94506040870135915080821115612ac8578384fd5b50612ad5878288016126fb565b925050612ae46060860161260c565b905092959194509250565b600060208284031215612b00578081fd5b5035919050565b60008151808452612b1f816020860160208601612d1f565b601f01601f19169290920160200192915050565b60008351612b45818460208801612d1f565b835190830190612b59818360208801612d1f565b01949350505050565b6001600160a01b0385811682528416602082015260408101839052608060608201819052600090612b9590830184612b07565b9695505050505050565b602081526000611e986020830184612b07565b60208082526032908201527f4552433732313a207472616e7366657220746f206e6f6e20455243373231526560408201527131b2b4bb32b91034b6b83632b6b2b73a32b960711b606082015260800190565b6020808252602e908201527f496e697469616c697a61626c653a20636f6e747261637420697320616c72656160408201526d191e481a5b9a5d1a585b1a5e995960921b606082015260800190565b6020808252818101527f4f776e61626c653a2063616c6c6572206973206e6f7420746865206f776e6572604082015260600190565b604051601f8201601f1916810167ffffffffffffffff81118282101715612cb057612cb0612de1565b604052919050565b600067ffffffffffffffff821115612cd257612cd2612de1565b5060051b60200190565b60008219821115612cef57612cef612db5565b500190565b600082612d0357612d03612dcb565b500490565b600082821015612d1a57612d1a612db5565b500390565b60005b83811015612d3a578181015183820152602001612d22565b838111156108965750506000910152565b600181811c90821680612d5f57607f821691505b60208210811415612d8057634e487b7160e01b600052602260045260246000fd5b50919050565b6000600019821415612d9a57612d9a612db5565b5060010190565b600082612db057612db0612dcb565b500690565b634e487b7160e01b600052601160045260246000fd5b634e487b7160e01b600052601260045260246000fd5b634e487b7160e01b600052604160045260246000fd5b6001600160e01b031981168114610a9457600080fdfea2646970667358221220a38fcf455d7afa3eaa0f4127aa1a1b022a2e0035a38ddb1d19e81bd7a90edd0a64736f6c63430008040033",
  "linkReferences": {},
  "deployedLinkReferences": {}
}