{
  "_format": "hh-sol-artifact-1",
  "contractName": "IVPSales",
  "sourceName": "contracts/IVPSales.sol",
  "abi": [
    {
      "inputs": [],
      "stateMutability": "nonpayable",
      "type": "constructor"
    },
    {
      "anonymous": false,
      "inputs": [
        {
          "indexed": false,
          "internalType": "address",
          "name": "_from",
          "type": "address"
        },
        {
          "indexed": false,
          "internalType": "uint256",
          "name": "_id",
          "type": "uint256"
        },
        {
          "indexed": false,
          "internalType": "uint256",
          "name": "amount",
          "type": "uint256"
        }
      ],
      "name": "Bid",
      "type": "event"
    },
    {
      "anonymous": false,
      "inputs": [
        {
          "indexed": false,
          "internalType": "uint256",
          "name": "_id",
          "type": "uint256"
        }
      ],
      "name": "CancelSale",
      "type": "event"
    },
    {
      "anonymous": false,
      "inputs": [
        {
          "indexed": false,
          "internalType": "uint256",
          "name": "_id",
          "type": "uint256"
        },
        {
          "indexed": false,
          "internalType": "address",
          "name": "seller",
          "type": "address"
        }
      ],
      "name": "List",
      "type": "event"
    },
    {
      "anonymous": false,
      "inputs": [
        {
          "indexed": false,
          "internalType": "address",
          "name": "account",
          "type": "address"
        }
      ],
      "name": "Paused",
      "type": "event"
    },
    {
      "anonymous": false,
      "inputs": [
        {
          "indexed": true,
          "internalType": "bytes32",
          "name": "role",
          "type": "bytes32"
        },
        {
          "indexed": true,
          "internalType": "bytes32",
          "name": "previousAdminRole",
          "type": "bytes32"
        },
        {
          "indexed": true,
          "internalType": "bytes32",
          "name": "newAdminRole",
          "type": "bytes32"
        }
      ],
      "name": "RoleAdminChanged",
      "type": "event"
    },
    {
      "anonymous": false,
      "inputs": [
        {
          "indexed": true,
          "internalType": "bytes32",
          "name": "role",
          "type": "bytes32"
        },
        {
          "indexed": true,
          "internalType": "address",
          "name": "account",
          "type": "address"
        },
        {
          "indexed": true,
          "internalType": "address",
          "name": "sender",
          "type": "address"
        }
      ],
      "name": "RoleGranted",
      "type": "event"
    },
    {
      "anonymous": false,
      "inputs": [
        {
          "indexed": true,
          "internalType": "bytes32",
          "name": "role",
          "type": "bytes32"
        },
        {
          "indexed": true,
          "internalType": "address",
          "name": "account",
          "type": "address"
        },
        {
          "indexed": true,
          "internalType": "address",
          "name": "sender",
          "type": "address"
        }
      ],
      "name": "RoleRevoked",
      "type": "event"
    },
    {
      "anonymous": false,
      "inputs": [
        {
          "indexed": false,
          "internalType": "uint256",
          "name": "_id",
          "type": "uint256"
        }
      ],
      "name": "SaleFinished",
      "type": "event"
    },
    {
      "anonymous": false,
      "inputs": [
        {
          "indexed": false,
          "internalType": "address",
          "name": "account",
          "type": "address"
        }
      ],
      "name": "Unpaused",
      "type": "event"
    },
    {
      "anonymous": false,
      "inputs": [
        {
          "indexed": false,
          "internalType": "address",
          "name": "_operator",
          "type": "address"
        },
        {
          "indexed": false,
          "internalType": "address",
          "name": "_to",
          "type": "address"
        },
        {
          "indexed": false,
          "internalType": "uint256",
          "name": "amount",
          "type": "uint256"
        }
      ],
      "name": "Withdraw",
      "type": "event"
    },
    {
      "inputs": [],
      "name": "DEFAULT_ADMIN_ROLE",
      "outputs": [
        {
          "internalType": "bytes32",
          "name": "",
          "type": "bytes32"
        }
      ],
      "stateMutability": "view",
      "type": "function"
    },
    {
      "inputs": [
        {
          "internalType": "address",
          "name": "addr",
          "type": "address"
        }
      ],
      "name": "addAdmin",
      "outputs": [],
      "stateMutability": "nonpayable",
      "type": "function"
    },
    {
      "inputs": [
        {
          "internalType": "address",
          "name": "",
          "type": "address"
        }
      ],
      "name": "balanceOf",
      "outputs": [
        {
          "internalType": "uint256",
          "name": "",
          "type": "uint256"
        }
      ],
      "stateMutability": "view",
      "type": "function"
    },
    {
      "inputs": [
        {
          "internalType": "uint256",
          "name": "salesid",
          "type": "uint256"
        },
        {
          "internalType": "uint256",
          "name": "amount",
          "type": "uint256"
        }
      ],
      "name": "bid",
      "outputs": [],
      "stateMutability": "payable",
      "type": "function"
    },
    {
      "inputs": [
        {
          "internalType": "uint256",
          "name": "_id",
          "type": "uint256"
        }
      ],
      "name": "cancelSales",
      "outputs": [],
      "stateMutability": "nonpayable",
      "type": "function"
    },
    {
      "inputs": [],
      "name": "fee_addr",
      "outputs": [
        {
          "internalType": "address",
          "name": "",
          "type": "address"
        }
      ],
      "stateMutability": "view",
      "type": "function"
    },
    {
      "inputs": [
        {
          "internalType": "bytes32",
          "name": "role",
          "type": "bytes32"
        }
      ],
      "name": "getRoleAdmin",
      "outputs": [
        {
          "internalType": "bytes32",
          "name": "",
          "type": "bytes32"
        }
      ],
      "stateMutability": "view",
      "type": "function"
    },
    {
      "inputs": [
        {
          "internalType": "bytes32",
          "name": "role",
          "type": "bytes32"
        },
        {
          "internalType": "address",
          "name": "account",
          "type": "address"
        }
      ],
      "name": "grantRole",
      "outputs": [],
      "stateMutability": "nonpayable",
      "type": "function"
    },
    {
      "inputs": [
        {
          "internalType": "bytes32",
          "name": "role",
          "type": "bytes32"
        },
        {
          "internalType": "address",
          "name": "account",
          "type": "address"
        }
      ],
      "name": "hasRole",
      "outputs": [
        {
          "internalType": "bool",
          "name": "",
          "type": "bool"
        }
      ],
      "stateMutability": "view",
      "type": "function"
    },
    {
      "inputs": [
        {
          "internalType": "string",
          "name": "_name",
          "type": "string"
        }
      ],
      "name": "initialize",
      "outputs": [],
      "stateMutability": "nonpayable",
      "type": "function"
    },
    {
      "inputs": [
        {
          "internalType": "address",
          "name": "addr",
          "type": "address"
        }
      ],
      "name": "isAdmin",
      "outputs": [
        {
          "internalType": "bool",
          "name": "",
          "type": "bool"
        }
      ],
      "stateMutability": "view",
      "type": "function"
    },
    {
      "inputs": [],
      "name": "name",
      "outputs": [
        {
          "internalType": "string",
          "name": "",
          "type": "string"
        }
      ],
      "stateMutability": "view",
      "type": "function"
    },
    {
      "inputs": [
        {
          "internalType": "address",
          "name": "",
          "type": "address"
        },
        {
          "internalType": "address",
          "name": "",
          "type": "address"
        },
        {
          "internalType": "uint256[]",
          "name": "",
          "type": "uint256[]"
        },
        {
          "internalType": "uint256[]",
          "name": "",
          "type": "uint256[]"
        },
        {
          "internalType": "bytes",
          "name": "",
          "type": "bytes"
        }
      ],
      "name": "onERC1155BatchReceived",
      "outputs": [
        {
          "internalType": "bytes4",
          "name": "",
          "type": "bytes4"
        }
      ],
      "stateMutability": "nonpayable",
      "type": "function"
    },
    {
      "inputs": [
        {
          "internalType": "address",
          "name": "",
          "type": "address"
        },
        {
          "internalType": "address",
          "name": "",
          "type": "address"
        },
        {
          "internalType": "uint256",
          "name": "",
          "type": "uint256"
        },
        {
          "internalType": "uint256",
          "name": "",
          "type": "uint256"
        },
        {
          "internalType": "bytes",
          "name": "",
          "type": "bytes"
        }
      ],
      "name": "onERC1155Received",
      "outputs": [
        {
          "internalType": "bytes4",
          "name": "",
          "type": "bytes4"
        }
      ],
      "stateMutability": "nonpayable",
      "type": "function"
    },
    {
      "inputs": [
        {
          "internalType": "address",
          "name": "",
          "type": "address"
        },
        {
          "internalType": "address",
          "name": "",
          "type": "address"
        },
        {
          "internalType": "uint256",
          "name": "",
          "type": "uint256"
        },
        {
          "internalType": "bytes",
          "name": "",
          "type": "bytes"
        }
      ],
      "name": "onERC721Received",
      "outputs": [
        {
          "internalType": "bytes4",
          "name": "",
          "type": "bytes4"
        }
      ],
      "stateMutability": "nonpayable",
      "type": "function"
    },
    {
      "inputs": [],
      "name": "pause",
      "outputs": [],
      "stateMutability": "nonpayable",
      "type": "function"
    },
    {
      "inputs": [],
      "name": "paused",
      "outputs": [
        {
          "internalType": "bool",
          "name": "",
          "type": "bool"
        }
      ],
      "stateMutability": "view",
      "type": "function"
    },
    {
      "inputs": [
        {
          "internalType": "address",
          "name": "addr",
          "type": "address"
        }
      ],
      "name": "removeAdmin",
      "outputs": [],
      "stateMutability": "nonpayable",
      "type": "function"
    },
    {
      "inputs": [
        {
          "internalType": "bytes32",
          "name": "role",
          "type": "bytes32"
        },
        {
          "internalType": "address",
          "name": "account",
          "type": "address"
        }
      ],
      "name": "renounceRole",
      "outputs": [],
      "stateMutability": "nonpayable",
      "type": "function"
    },
    {
      "inputs": [
        {
          "internalType": "bytes32",
          "name": "role",
          "type": "bytes32"
        },
        {
          "internalType": "address",
          "name": "account",
          "type": "address"
        }
      ],
      "name": "revokeRole",
      "outputs": [],
      "stateMutability": "nonpayable",
      "type": "function"
    },
    {
      "inputs": [
        {
          "internalType": "uint256",
          "name": "",
          "type": "uint256"
        }
      ],
      "name": "sales",
      "outputs": [
        {
          "internalType": "uint256",
          "name": "salesid",
          "type": "uint256"
        },
        {
          "internalType": "uint256",
          "name": "tokenid",
          "type": "uint256"
        },
        {
          "internalType": "address",
          "name": "token_addr",
          "type": "address"
        },
        {
          "internalType": "uint256",
          "name": "contract_type",
          "type": "uint256"
        },
        {
          "internalType": "address",
          "name": "seller",
          "type": "address"
        },
        {
          "internalType": "uint256",
          "name": "price",
          "type": "uint256"
        },
        {
          "internalType": "uint256",
          "name": "amount",
          "type": "uint256"
        },
        {
          "internalType": "uint256",
          "name": "status",
          "type": "uint256"
        },
        {
          "internalType": "uint256",
          "name": "fee",
          "type": "uint256"
        },
        {
          "internalType": "uint256",
          "name": "r_fee",
          "type": "uint256"
        },
        {
          "internalType": "address",
          "name": "r_fee_addr",
          "type": "address"
        }
      ],
      "stateMutability": "view",
      "type": "function"
    },
    {
      "inputs": [
        {
          "internalType": "address",
          "name": "addr",
          "type": "address"
        }
      ],
      "name": "setFeeAddr",
      "outputs": [],
      "stateMutability": "nonpayable",
      "type": "function"
    },
    {
      "inputs": [
        {
          "internalType": "uint256",
          "name": "salesid",
          "type": "uint256"
        },
        {
          "internalType": "uint256",
          "name": "tokenid",
          "type": "uint256"
        },
        {
          "internalType": "address",
          "name": "token_addr",
          "type": "address"
        },
        {
          "internalType": "uint256",
          "name": "contract_type",
          "type": "uint256"
        },
        {
          "internalType": "uint256",
          "name": "amount",
          "type": "uint256"
        },
        {
          "internalType": "uint256",
          "name": "price",
          "type": "uint256"
        },
        {
          "internalType": "uint256",
          "name": "fee",
          "type": "uint256"
        },
        {
          "internalType": "uint256",
          "name": "r_fee",
          "type": "uint256"
        },
        {
          "internalType": "address",
          "name": "r_fee_addr",
          "type": "address"
        }
      ],
      "name": "startSales",
      "outputs": [],
      "stateMutability": "nonpayable",
      "type": "function"
    },
    {
      "inputs": [
        {
          "internalType": "bytes4",
          "name": "interfaceId",
          "type": "bytes4"
        }
      ],
      "name": "supportsInterface",
      "outputs": [
        {
          "internalType": "bool",
          "name": "",
          "type": "bool"
        }
      ],
      "stateMutability": "view",
      "type": "function"
    },
    {
      "inputs": [],
      "name": "unpause",
      "outputs": [],
      "stateMutability": "nonpayable",
      "type": "function"
    },
    {
      "inputs": [
        {
          "internalType": "address payable",
          "name": "_to",
          "type": "address"
        },
        {
          "internalType": "uint256",
          "name": "amount",
          "type": "uint256"
        }
      ],
      "name": "withdraw",
      "outputs": [],
      "stateMutability": "nonpayable",
      "type": "function"
    }
  ],
  "bytecode": "0x608060405234801561001057600080fd5b506125bc806100206000396000f3fe6080604052600436106101815760003560e01c80638456cb59116100d1578063b5f522f71161008a578063d547741f11610064578063d547741f1461055f578063f23a6e611461057f578063f3fef3a3146105ab578063f62d1888146105cb57600080fd5b8063b5f522f714610432578063bc197c8114610513578063ceec39b11461053f57600080fd5b80638456cb591461036f57806391d1485414610384578063942ec85a146103a457806397fe0278146103c4578063a217fddf146103fd578063b2855b4f1461041257600080fd5b80632f2ff15d1161013e578063598647f811610118578063598647f8146102f65780635c975abb14610309578063704802751461032157806370a082311461034157600080fd5b80632f2ff15d146102a157806336568abe146102c15780633f4ba83a146102e157600080fd5b806301ffc9a71461018657806306fdde03146101bb578063150b7a02146101dd5780631785f53c14610221578063248a9ca31461024357806324d7806c14610281575b600080fd5b34801561019257600080fd5b506101a66101a1366004612172565b6105eb565b60405190151581526020015b60405180910390f35b3480156101c757600080fd5b506101d06105fc565b6040516101b29190612379565b3480156101e957600080fd5b506102086101f836600461205a565b630a85bd0160e11b949350505050565b6040516001600160e01b031990911681526020016101b2565b34801561022d57600080fd5b5061024161023c366004611f4d565b61068b565b005b34801561024f57600080fd5b5061027361025e36600461212b565b60009081526065602052604090206001015490565b6040519081526020016101b2565b34801561028d57600080fd5b506101a661029c366004611f4d565b6106a6565b3480156102ad57600080fd5b506102416102bc366004612143565b6106c0565b3480156102cd57600080fd5b506102416102dc366004612143565b6106eb565b3480156102ed57600080fd5b5061024161076e565b610241610304366004612200565b610799565b34801561031557600080fd5b5060975460ff166101a6565b34801561032d57600080fd5b5061024161033c366004611f4d565b610c64565b34801561034d57600080fd5b5061027361035c366004611f4d565b6101626020526000908152604090205481565b34801561037b57600080fd5b50610241610c7c565b34801561039057600080fd5b506101a661039f366004612143565b610ca5565b3480156103b057600080fd5b506102416103bf36600461212b565b610cd0565b3480156103d057600080fd5b50610160546103e5906001600160a01b031681565b6040516001600160a01b0390911681526020016101b2565b34801561040957600080fd5b50610273600081565b34801561041e57600080fd5b5061024161042d366004611f4d565b610f3d565b34801561043e57600080fd5b506104b461044d36600461212b565b61016160205260009081526040902080546001820154600283015460038401546004850154600586015460068701546007880154600889015460098a0154600a909a0154989997986001600160a01b0397881698969795861696949593949293919291168b565b604080519b8c5260208c019a909a526001600160a01b03988916998b019990995260608a0196909652938616608089015260a088019290925260c087015260e086015261010085015261012084015216610140820152610160016101b2565b34801561051f57600080fd5b5061020861052e366004611fb0565b63bc197c8160e01b95945050505050565b34801561054b57600080fd5b5061024161055a366004612221565b610f94565b34801561056b57600080fd5b5061024161057a366004612143565b6114d5565b34801561058b57600080fd5b5061020861059a3660046120c4565b63f23a6e6160e01b95945050505050565b3480156105b757600080fd5b506102416105c6366004611f85565b6114fb565b3480156105d757600080fd5b506102416105e636600461219a565b6115ea565b60006105f682611696565b92915050565b61015f805461060a906124ea565b80601f0160208091040260200160405190810160405280929190818152602001828054610636906124ea565b80156106835780601f1061065857610100808354040283529160200191610683565b820191906000526020600020905b81548152906001019060200180831161066657829003601f168201915b505050505081565b6106a3600080516020612567833981519152826114d5565b50565b60006105f660008051602061256783398151915283610ca5565b6000828152606560205260409020600101546106dc81336116bb565b6106e6838361171f565b505050565b6001600160a01b03811633146107605760405162461bcd60e51b815260206004820152602f60248201527f416363657373436f6e74726f6c3a2063616e206f6e6c792072656e6f756e636560448201526e103937b632b9903337b91039b2b63360891b60648201526084015b60405180910390fd5b61076a82826117a5565b5050565b61078660008051602061256783398151915233610ca5565b61078f57600080fd5b61079761180c565b565b60975460ff16156107bc5760405162461bcd60e51b8152600401610757906123ac565b600082815261016160205260409020816108105760405162461bcd60e51b8152602060048201526015602482015274189a590e881a5b9d985b1a5908185c99dd5b595b9d605a1b6044820152606401610757565b80600701546001146108645760405162461bcd60e51b815260206004820152601d60248201527f6269643a2053616c6573206e6f74207374617274206f7220656e6465640000006044820152606401610757565b81816006015410156108b85760405162461bcd60e51b815260206004820152601c60248201527f6269643a20746f6b656e20616d6f756e74206e6f7420656e6f756768000000006044820152606401610757565b8181600501546108c8919061246d565b34101561090e5760405162461bcd60e51b81526020600482015260146024820152730c4d2c87440cceadcc840dcdee840cadcdeeaced60631b6044820152606401610757565b60048101546001600160a01b03163314156109795760405162461bcd60e51b815260206004820152602560248201527f6269643a20627579657220616e642073656c6c65722063616e206e6f742062656044820152642073616d6560d81b6064820152608401610757565b8181600601600082825461098d919061248c565b909155505060088101546109a290839061246d565b610160546001600160a01b031660009081526101626020526040812080549091906109ce908490612455565b909155505060058101546109e390839061246d565b341115610a2a578181600501546109fa919061246d565b610a04903461248c565b336000908152610162602052604081208054909190610a24908490612455565b90915550505b600a8101546001600160a01b031615610a8057818160090154610a4d919061246d565b600a8201546001600160a01b03166000908152610162602052604081208054909190610a7a908490612455565b90915550505b60048101546009820154600883015460058401546001600160a01b03909316926108fc9286929091610ab2919061248c565b610abc919061248c565b610ac6919061246d565b6040518115909202916000818181858888f19350505050158015610aee573d6000803e3d6000fd5b5080600301546104831415610b6f5760028101546001820154604051637921219560e11b81526001600160a01b039092169163f242432a91610b3891309133918890600401612336565b600060405180830381600087803b158015610b5257600080fd5b505af1158015610b66573d6000803e3d6000fd5b50505050610bdb565b60028101546001820154604051632142170760e11b81526001600160a01b03909216916342842e0e91610ba89130913391600401612312565b600060405180830381600087803b158015610bc257600080fd5b505af1158015610bd6573d6000803e3d6000fd5b505050505b60408051338152602081018590529081018390527f19421268847f42dd61705778018ddfc43bcdce8517e7a630acb12f122c7094819060600160405180910390a160068101546106e657600260078201556040518381527fb068776b457cefe34568f0e1ffb0cc2480cf799e77410c955f6e7502d654655d9060200160405180910390a1505050565b6106a3600080516020612567833981519152826106c0565b610c9460008051602061256783398151915233610ca5565b610c9d57600080fd5b61079761189f565b60009182526065602090815260408084206001600160a01b0393909316845291905290205460ff1690565b60975460ff1615610cf35760405162461bcd60e51b8152600401610757906123ac565b60008181526101616020526040902060048101546001600160a01b031633148015610d22575080600701546001145b610d805760405162461bcd60e51b815260206004820152602960248201527f63616c6c6572206973206e6f74206f776e6572206f722073616c6573206973206044820152681b9bdd081cdd185c9d60ba1b6064820152608401610757565b600082815261016160205260409020600360079091018190558101546104831415610e2157600281015460048083015460018401546006850154604051637921219560e11b81526001600160a01b039586169563f242432a95610dea953095921693919201612336565b600060405180830381600087803b158015610e0457600080fd5b505af1158015610e18573d6000803e3d6000fd5b50505050610e92565b60028101546004808301546001840154604051632142170760e11b81526001600160a01b03948516946342842e0e94610e5f94309492169201612312565b600060405180830381600087803b158015610e7957600080fd5b505af1158015610e8d573d6000803e3d6000fd5b505050505b60008281526101616020526040808220828155600181018390556002810180546001600160a01b03199081169091556003820184905560048201805482169055600582018490556006820184905560078201849055600882018490556009820193909355600a018054909216909155517f6ecd7b702bc398299b70a9c417b14d16835121b9df1f7b3036ccf42ee990f6d490610f319084815260200190565b60405180910390a15050565b610f5560008051602061256783398151915233610ca5565b610f5e57600080fd5b6001600160a01b038116610f7157600080fd5b61016080546001600160a01b0319166001600160a01b0392909216919091179055565b60975460ff1615610fb75760405162461bcd60e51b8152600401610757906123ac565b8561048314156110f957604051627eeac760e11b815233600482015260248101899052879086906001600160a01b0383169062fdd58e9060440160206040518083038186803b15801561100957600080fd5b505afa15801561101d573d6000803e3d6000fd5b505050506040513d601f19601f8201168201806040525081019061104191906121e8565b101561108f5760405162461bcd60e51b815260206004820152601f60248201527f73656c6c3a206e6f7420656e6f75676820616d6f756e7420746f2073656c6c006044820152606401610757565b604051637921219560e11b81526001600160a01b0382169063f242432a906110c190339030908e908c90600401612336565b600060405180830381600087803b1580156110db57600080fd5b505af11580156110ef573d6000803e3d6000fd5b5050505050611226565b6040516331a9108f60e11b815260048101899052879033906001600160a01b03831690636352211e9060240160206040518083038186803b15801561113d57600080fd5b505afa158015611151573d6000803e3d6000fd5b505050506040513d601f19601f820116820180604052508101906111759190611f69565b6001600160a01b0316146111c25760405162461bcd60e51b81526020600482015260146024820152733737ba103a3432903a37b5b2b7103437b63232b960611b6044820152606401610757565b604051632142170760e11b81526001600160a01b038216906342842e0e906111f290339030908e90600401612312565b600060405180830381600087803b15801561120c57600080fd5b505af1158015611220573d6000803e3d6000fd5b50505050505b600089118015611243575060008981526101616020526040902054155b801561124f5750600085115b801561125b5750600084115b801561126f575061126c8284612455565b84115b6112b45760405162461bcd60e51b81526020600482015260166024820152751cd95b1b0e881a5b9d985b1a5908185c99dd5b595b9d60521b6044820152606401610757565b8115806112d457506000821180156112d457506001600160a01b03811615155b6113205760405162461bcd60e51b815260206004820152601860248201527f73656c6c3a20696e76616c696420725f6665655f6164647200000000000000006044820152606401610757565b60006040518061016001604052808b81526020018a8152602001896001600160a01b03168152602001888152602001336001600160a01b0316815260200186815260200187815260200160018152602001858152602001848152602001836001600160a01b031681525090508061016160008c8152602001908152602001600020600082015181600001556020820151816001015560408201518160020160006101000a8154816001600160a01b0302191690836001600160a01b031602179055506060820151816003015560808201518160040160006101000a8154816001600160a01b0302191690836001600160a01b0316021790555060a0820151816005015560c0820151816006015560e082015181600701556101008201518160080155610120820151816009015561014082015181600a0160006101000a8154816001600160a01b0302191690836001600160a01b031602179055509050507f2abf3c9541619dd5825826a0aceeb5dbd5068c5873fbc754497cf5950097d25c8a336040516114c19291909182526001600160a01b0316602082015260400190565b60405180910390a150505050505050505050565b6000828152606560205260409020600101546114f181336116bb565b6106e683836117a5565b336000908152610162602052604090205481111561155b5760405162461bcd60e51b815260206004820152601b60248201527f77697468647261773a20616d6f756e7420697320696e76616c696400000000006044820152606401610757565b33600090815261016260205260408120805483929061157b90849061248c565b90915550506040516001600160a01b0383169082156108fc029083906000818181858888f193505050501580156115b6573d6000803e3d6000fd5b507f9b1bfa7fa9ee420a16e124f794c35ac9f90472acc99140eb2f6447c714cad8eb338383604051610f3193929190612312565b600054610100900460ff1680611603575060005460ff16155b61161f5760405162461bcd60e51b8152600401610757906123d6565b600054610100900460ff16158015611641576000805461ffff19166101011790555b6116496118f7565b611651611992565b6116596119f9565b815161166d9061015f906020850190611dba565b5061016080546001600160a01b03191633179055801561076a576000805461ff00191690555050565b60006001600160e01b03198216630271189760e51b14806105f657506105f682611a68565b6116c58282610ca5565b61076a576116dd816001600160a01b03166014611a9d565b6116e8836020611a9d565b6040516020016116f992919061229d565b60408051601f198184030181529082905262461bcd60e51b825261075791600401612379565b6117298282610ca5565b61076a5760008281526065602090815260408083206001600160a01b03851684529091529020805460ff191660011790556117613390565b6001600160a01b0316816001600160a01b0316837f2f8788117e7eff1d82e926ec794901d17c78024a50270940304540a733656f0d60405160405180910390a45050565b6117af8282610ca5565b1561076a5760008281526065602090815260408083206001600160a01b0385168085529252808320805460ff1916905551339285917ff6391f5c32d9c69d2a47ea670b442974b53935d1edc7fd64eb21e047a839171b9190a45050565b60975460ff166118555760405162461bcd60e51b815260206004820152601460248201527314185d5cd8589b194e881b9bdd081c185d5cd95960621b6044820152606401610757565b6097805460ff191690557f5db9ee0a495bf2e6ff9c91a7834c1ba4fdd244a5e8aa4e537bd38aeae4b073aa335b6040516001600160a01b03909116815260200160405180910390a1565b60975460ff16156118c25760405162461bcd60e51b8152600401610757906123ac565b6097805460ff191660011790557f62e78cea01bee320cd4e420270b5ea74000d11b0c9f74754ebdbfc544b05a2586118823390565b600054610100900460ff1680611910575060005460ff16155b61192c5760405162461bcd60e51b8152600401610757906123d6565b600054610100900460ff1615801561194e576000805461ffff19166101011790555b61196660008051602061256783398151915233611c86565b61197e60008051602061256783398151915280611c90565b80156106a3576000805461ff001916905550565b600054610100900460ff16806119ab575060005460ff16155b6119c75760405162461bcd60e51b8152600401610757906123d6565b600054610100900460ff161580156119e9576000805461ffff19166101011790555b6119f1611cdb565b61197e611d45565b600054610100900460ff1680611a12575060005460ff16155b611a2e5760405162461bcd60e51b8152600401610757906123d6565b600054610100900460ff16158015611a50576000805461ffff19166101011790555b611a58611cdb565b611a60611cdb565b61197e611cdb565b60006001600160e01b03198216637965db0b60e01b14806105f657506301ffc9a760e01b6001600160e01b03198316146105f6565b60606000611aac83600261246d565b611ab7906002612455565b67ffffffffffffffff811115611add57634e487b7160e01b600052604160045260246000fd5b6040519080825280601f01601f191660200182016040528015611b07576020820181803683370190505b509050600360fc1b81600081518110611b3057634e487b7160e01b600052603260045260246000fd5b60200101906001600160f81b031916908160001a905350600f60fb1b81600181518110611b6d57634e487b7160e01b600052603260045260246000fd5b60200101906001600160f81b031916908160001a9053506000611b9184600261246d565b611b9c906001612455565b90505b6001811115611c30576f181899199a1a9b1b9c1cb0b131b232b360811b85600f1660108110611bde57634e487b7160e01b600052603260045260246000fd5b1a60f81b828281518110611c0257634e487b7160e01b600052603260045260246000fd5b60200101906001600160f81b031916908160001a90535060049490941c93611c29816124d3565b9050611b9f565b508315611c7f5760405162461bcd60e51b815260206004820181905260248201527f537472696e67733a20686578206c656e67746820696e73756666696369656e746044820152606401610757565b9392505050565b61076a828261171f565b600082815260656020526040808220600101805490849055905190918391839186917fbd79b86ffe0ab8e8776151514217cd7cacd52c909f66475c3af44e129f0b00ff9190a4505050565b600054610100900460ff1680611cf4575060005460ff16155b611d105760405162461bcd60e51b8152600401610757906123d6565b600054610100900460ff1615801561197e576000805461ffff191661010117905580156106a3576000805461ff001916905550565b600054610100900460ff1680611d5e575060005460ff16155b611d7a5760405162461bcd60e51b8152600401610757906123d6565b600054610100900460ff16158015611d9c576000805461ffff19166101011790555b6097805460ff1916905580156106a3576000805461ff001916905550565b828054611dc6906124ea565b90600052602060002090601f016020900481019282611de85760008555611e2e565b82601f10611e0157805160ff1916838001178555611e2e565b82800160010185558215611e2e579182015b82811115611e2e578251825591602001919060010190611e13565b50611e3a929150611e3e565b5090565b5b80821115611e3a5760008155600101611e3f565b600067ffffffffffffffff831115611e6d57611e6d61253b565b611e80601f8401601f1916602001612424565b9050828152838383011115611e9457600080fd5b828260208301376000602084830101529392505050565b600082601f830112611ebb578081fd5b8135602067ffffffffffffffff821115611ed757611ed761253b565b8160051b611ee6828201612424565b838152828101908684018388018501891015611f00578687fd5b8693505b85841015611f22578035835260019390930192918401918401611f04565b50979650505050505050565b600082601f830112611f3e578081fd5b611c7f83833560208501611e53565b600060208284031215611f5e578081fd5b8135611c7f81612551565b600060208284031215611f7a578081fd5b8151611c7f81612551565b60008060408385031215611f97578081fd5b8235611fa281612551565b946020939093013593505050565b600080600080600060a08688031215611fc7578081fd5b8535611fd281612551565b94506020860135611fe281612551565b9350604086013567ffffffffffffffff80821115611ffe578283fd5b61200a89838a01611eab565b9450606088013591508082111561201f578283fd5b61202b89838a01611eab565b93506080880135915080821115612040578283fd5b5061204d88828901611f2e565b9150509295509295909350565b6000806000806080858703121561206f578384fd5b843561207a81612551565b9350602085013561208a81612551565b925060408501359150606085013567ffffffffffffffff8111156120ac578182fd5b6120b887828801611f2e565b91505092959194509250565b600080600080600060a086880312156120db578081fd5b85356120e681612551565b945060208601356120f681612551565b93506040860135925060608601359150608086013567ffffffffffffffff81111561211f578182fd5b61204d88828901611f2e565b60006020828403121561213c578081fd5b5035919050565b60008060408385031215612155578182fd5b82359150602083013561216781612551565b809150509250929050565b600060208284031215612183578081fd5b81356001600160e01b031981168114611c7f578182fd5b6000602082840312156121ab578081fd5b813567ffffffffffffffff8111156121c1578182fd5b8201601f810184136121d1578182fd5b6121e084823560208401611e53565b949350505050565b6000602082840312156121f9578081fd5b5051919050565b60008060408385031215612212578182fd5b50508035926020909101359150565b60008060008060008060008060006101208a8c03121561223f578687fd5b8935985060208a0135975060408a013561225881612551565b965060608a0135955060808a0135945060a08a0135935060c08a0135925060e08a013591506101008a013561228c81612551565b809150509295985092959850929598565b7f416363657373436f6e74726f6c3a206163636f756e74200000000000000000008152600083516122d58160178501602088016124a3565b7001034b99036b4b9b9b4b733903937b6329607d1b60179184019182015283516123068160288401602088016124a3565b01602801949350505050565b6001600160a01b039384168152919092166020820152604081019190915260600190565b6001600160a01b0394851681529290931660208301526040820152606081019190915260a06080820181905260029082015261060f60f31b60c082015260e00190565b60208152600082518060208401526123988160408501602087016124a3565b601f01601f19169190910160400192915050565b60208082526010908201526f14185d5cd8589b194e881c185d5cd95960821b604082015260600190565b6020808252602e908201527f496e697469616c697a61626c653a20636f6e747261637420697320616c72656160408201526d191e481a5b9a5d1a585b1a5e995960921b606082015260800190565b604051601f8201601f1916810167ffffffffffffffff8111828210171561244d5761244d61253b565b604052919050565b6000821982111561246857612468612525565b500190565b600081600019048311821515161561248757612487612525565b500290565b60008282101561249e5761249e612525565b500390565b60005b838110156124be5781810151838201526020016124a6565b838111156124cd576000848401525b50505050565b6000816124e2576124e2612525565b506000190190565b600181811c908216806124fe57607f821691505b6020821081141561251f57634e487b7160e01b600052602260045260246000fd5b50919050565b634e487b7160e01b600052601160045260246000fd5b634e487b7160e01b600052604160045260246000fd5b6001600160a01b03811681146106a357600080fdfea49807205ce4d355092ef5a8a18f56e8913cf4a201fbe287825b095693c21775a2646970667358221220d366137cd89f6357e388057dddceb34e174e8aee26a504526eafbf16bee4daf964736f6c63430008040033",
  "linkReferences": {},
  "deployedLinkReferences": {}
}