{
  "_format": "hh-sol-artifact-1",
  "contractName": "IVPSales721",
  "sourceName": "contracts/IVPSales721.sol",
  "abi": [
    {
      "inputs": [],
      "stateMutability": "nonpayable",
      "type": "constructor"
    },
    {
      "anonymous": false,
      "inputs": [
        {
          "indexed": false,
          "internalType": "address",
          "name": "_from",
          "type": "address"
        },
        {
          "indexed": false,
          "internalType": "uint256",
          "name": "_id",
          "type": "uint256"
        },
        {
          "indexed": false,
          "internalType": "uint256",
          "name": "amount",
          "type": "uint256"
        }
      ],
      "name": "Bid",
      "type": "event"
    },
    {
      "anonymous": false,
      "inputs": [
        {
          "indexed": false,
          "internalType": "uint256",
          "name": "_id",
          "type": "uint256"
        }
      ],
      "name": "CancelSale",
      "type": "event"
    },
    {
      "anonymous": false,
      "inputs": [
        {
          "indexed": false,
          "internalType": "uint256",
          "name": "_id",
          "type": "uint256"
        },
        {
          "indexed": false,
          "internalType": "address",
          "name": "seller",
          "type": "address"
        }
      ],
      "name": "List",
      "type": "event"
    },
    {
      "anonymous": false,
      "inputs": [
        {
          "indexed": true,
          "internalType": "address",
          "name": "previousOwner",
          "type": "address"
        },
        {
          "indexed": true,
          "internalType": "address",
          "name": "newOwner",
          "type": "address"
        }
      ],
      "name": "OwnershipTransferred",
      "type": "event"
    },
    {
      "anonymous": false,
      "inputs": [
        {
          "indexed": false,
          "internalType": "address",
          "name": "account",
          "type": "address"
        }
      ],
      "name": "Paused",
      "type": "event"
    },
    {
      "anonymous": false,
      "inputs": [
        {
          "indexed": false,
          "internalType": "uint256",
          "name": "_id",
          "type": "uint256"
        }
      ],
      "name": "SaleFinished",
      "type": "event"
    },
    {
      "anonymous": false,
      "inputs": [
        {
          "indexed": false,
          "internalType": "address",
          "name": "account",
          "type": "address"
        }
      ],
      "name": "Unpaused",
      "type": "event"
    },
    {
      "anonymous": false,
      "inputs": [
        {
          "indexed": false,
          "internalType": "address",
          "name": "_operator",
          "type": "address"
        },
        {
          "indexed": false,
          "internalType": "address",
          "name": "_to",
          "type": "address"
        },
        {
          "indexed": false,
          "internalType": "uint256",
          "name": "amount",
          "type": "uint256"
        }
      ],
      "name": "Withdraw",
      "type": "event"
    },
    {
      "inputs": [
        {
          "internalType": "address",
          "name": "",
          "type": "address"
        }
      ],
      "name": "balanceOf",
      "outputs": [
        {
          "internalType": "uint256",
          "name": "",
          "type": "uint256"
        }
      ],
      "stateMutability": "view",
      "type": "function"
    },
    {
      "inputs": [
        {
          "internalType": "uint256",
          "name": "_id",
          "type": "uint256"
        }
      ],
      "name": "bid",
      "outputs": [],
      "stateMutability": "payable",
      "type": "function"
    },
    {
      "inputs": [
        {
          "internalType": "uint256",
          "name": "_id",
          "type": "uint256"
        }
      ],
      "name": "cancelSales",
      "outputs": [],
      "stateMutability": "nonpayable",
      "type": "function"
    },
    {
      "inputs": [
        {
          "internalType": "string",
          "name": "_name",
          "type": "string"
        }
      ],
      "name": "initialize",
      "outputs": [],
      "stateMutability": "nonpayable",
      "type": "function"
    },
    {
      "inputs": [],
      "name": "name",
      "outputs": [
        {
          "internalType": "string",
          "name": "",
          "type": "string"
        }
      ],
      "stateMutability": "view",
      "type": "function"
    },
    {
      "inputs": [
        {
          "internalType": "address",
          "name": "",
          "type": "address"
        },
        {
          "internalType": "address",
          "name": "",
          "type": "address"
        },
        {
          "internalType": "uint256",
          "name": "",
          "type": "uint256"
        },
        {
          "internalType": "bytes",
          "name": "",
          "type": "bytes"
        }
      ],
      "name": "onERC721Received",
      "outputs": [
        {
          "internalType": "bytes4",
          "name": "",
          "type": "bytes4"
        }
      ],
      "stateMutability": "nonpayable",
      "type": "function"
    },
    {
      "inputs": [],
      "name": "owner",
      "outputs": [
        {
          "internalType": "address",
          "name": "",
          "type": "address"
        }
      ],
      "stateMutability": "view",
      "type": "function"
    },
    {
      "inputs": [],
      "name": "pause",
      "outputs": [],
      "stateMutability": "nonpayable",
      "type": "function"
    },
    {
      "inputs": [],
      "name": "paused",
      "outputs": [
        {
          "internalType": "bool",
          "name": "",
          "type": "bool"
        }
      ],
      "stateMutability": "view",
      "type": "function"
    },
    {
      "inputs": [],
      "name": "renounceOwnership",
      "outputs": [],
      "stateMutability": "nonpayable",
      "type": "function"
    },
    {
      "inputs": [
        {
          "internalType": "uint256",
          "name": "",
          "type": "uint256"
        }
      ],
      "name": "sales",
      "outputs": [
        {
          "internalType": "uint256",
          "name": "id",
          "type": "uint256"
        },
        {
          "internalType": "uint256",
          "name": "tokenid",
          "type": "uint256"
        },
        {
          "internalType": "address",
          "name": "seller",
          "type": "address"
        },
        {
          "internalType": "address",
          "name": "tokenAddress",
          "type": "address"
        },
        {
          "internalType": "uint256",
          "name": "price",
          "type": "uint256"
        },
        {
          "internalType": "uint256",
          "name": "status",
          "type": "uint256"
        },
        {
          "internalType": "uint256",
          "name": "fee",
          "type": "uint256"
        },
        {
          "internalType": "uint256",
          "name": "r_fee",
          "type": "uint256"
        },
        {
          "internalType": "address",
          "name": "r_fee_addr",
          "type": "address"
        }
      ],
      "stateMutability": "view",
      "type": "function"
    },
    {
      "inputs": [
        {
          "internalType": "uint256",
          "name": "_id",
          "type": "uint256"
        }
      ],
      "name": "salesInfo",
      "outputs": [
        {
          "internalType": "uint256",
          "name": "tokenid",
          "type": "uint256"
        },
        {
          "internalType": "address",
          "name": "seller",
          "type": "address"
        },
        {
          "internalType": "address",
          "name": "tokenAddress",
          "type": "address"
        },
        {
          "internalType": "uint256",
          "name": "price",
          "type": "uint256"
        },
        {
          "internalType": "uint256",
          "name": "fee",
          "type": "uint256"
        },
        {
          "internalType": "uint256",
          "name": "status",
          "type": "uint256"
        },
        {
          "internalType": "uint256",
          "name": "r_fee",
          "type": "uint256"
        }
      ],
      "stateMutability": "view",
      "type": "function"
    },
    {
      "inputs": [
        {
          "internalType": "uint256[]",
          "name": "ids",
          "type": "uint256[]"
        }
      ],
      "name": "salesInfoBatch",
      "outputs": [
        {
          "internalType": "uint256[]",
          "name": "tokenid",
          "type": "uint256[]"
        },
        {
          "internalType": "address[]",
          "name": "seller",
          "type": "address[]"
        },
        {
          "internalType": "address[]",
          "name": "tokenAddress",
          "type": "address[]"
        },
        {
          "internalType": "uint256[]",
          "name": "price",
          "type": "uint256[]"
        },
        {
          "internalType": "uint256[]",
          "name": "fee",
          "type": "uint256[]"
        },
        {
          "internalType": "uint256[]",
          "name": "status",
          "type": "uint256[]"
        },
        {
          "internalType": "uint256[]",
          "name": "r_fee",
          "type": "uint256[]"
        }
      ],
      "stateMutability": "view",
      "type": "function"
    },
    {
      "inputs": [
        {
          "internalType": "uint256",
          "name": "_id",
          "type": "uint256"
        },
        {
          "internalType": "uint256",
          "name": "tokenid",
          "type": "uint256"
        },
        {
          "internalType": "address",
          "name": "tokenAddress",
          "type": "address"
        },
        {
          "internalType": "uint256",
          "name": "price",
          "type": "uint256"
        },
        {
          "internalType": "uint256",
          "name": "fee",
          "type": "uint256"
        },
        {
          "internalType": "uint256",
          "name": "r_fee",
          "type": "uint256"
        },
        {
          "internalType": "address",
          "name": "r_fee_addr",
          "type": "address"
        }
      ],
      "name": "startSales",
      "outputs": [],
      "stateMutability": "nonpayable",
      "type": "function"
    },
    {
      "inputs": [
        {
          "internalType": "address",
          "name": "newOwner",
          "type": "address"
        }
      ],
      "name": "transferOwnership",
      "outputs": [],
      "stateMutability": "nonpayable",
      "type": "function"
    },
    {
      "inputs": [],
      "name": "unpause",
      "outputs": [],
      "stateMutability": "nonpayable",
      "type": "function"
    },
    {
      "inputs": [
        {
          "internalType": "address payable",
          "name": "_to",
          "type": "address"
        },
        {
          "internalType": "uint256",
          "name": "amount",
          "type": "uint256"
        }
      ],
      "name": "withdraw",
      "outputs": [],
      "stateMutability": "nonpayable",
      "type": "function"
    }
  ],
  "bytecode": "0x608060405234801561001057600080fd5b50611ebf806100206000396000f3fe6080604052600436106100fe5760003560e01c806370a0823111610095578063942ec85a11610064578063942ec85a14610397578063b5f522f7146103b7578063f2fde38b1461047a578063f3fef3a31461049a578063f62d1888146104ba57600080fd5b806370a082311461030a578063715018a6146103455780638456cb591461035a5780638da5cb5b1461036f57600080fd5b8063454a2ab3116100d1578063454a2ab31461028157806350cb9756146102945780635c975abb146102c75780636d6c73b2146102ea57600080fd5b806306fdde0314610103578063150b7a021461012e578063351c3896146101725780633f4ba83a1461026a575b600080fd5b34801561010f57600080fd5b506101186104da565b6040516101259190611ca4565b60405180910390f35b34801561013a57600080fd5b506101596101493660046119bc565b630a85bd0160e11b949350505050565b6040516001600160e01b03199091168152602001610125565b34801561017e57600080fd5b5061022961018d366004611af7565b600090815260ca602090815260409182902082516101208101845281548152600182015492810183905260028201546001600160a01b039081169482018590526003830154811660608301819052600484015460808401819052600585015460a08501819052600686015460c08601819052600787015460e0870181905260089097015490941661010090950194909452949690949391929190565b604080519788526001600160a01b03968716602089015294909516938601939093526060850191909152608084015260a083015260c082015260e001610125565b34801561027657600080fd5b5061027f610568565b005b61027f61028f366004611af7565b6105a5565b3480156102a057600080fd5b506102b46102af366004611a39565b61094e565b6040516101259796959493929190611c0d565b3480156102d357600080fd5b5060655460ff166040519015158152602001610125565b3480156102f657600080fd5b5061027f610305366004611b0f565b610da1565b34801561031657600080fd5b50610337610325366004611952565b60cb6020526000908152604090205481565b604051908152602001610125565b34801561035157600080fd5b5061027f61103e565b34801561036657600080fd5b5061027f611072565b34801561037b57600080fd5b506033546040516001600160a01b039091168152602001610125565b3480156103a357600080fd5b5061027f6103b2366004611af7565b6110a4565b3480156103c357600080fd5b5061042a6103d2366004611af7565b60ca60205260009081526040902080546001820154600283015460038401546004850154600586015460068701546007880154600890980154969795966001600160a01b039586169694861695939492939192911689565b60408051998a5260208a01989098526001600160a01b03968716978901979097529385166060880152608087019290925260a086015260c085015260e08401521661010082015261012001610125565b34801561048657600080fd5b5061027f610495366004611952565b611269565b3480156104a657600080fd5b5061027f6104b5366004611991565b611304565b3480156104c657600080fd5b5061027f6104d5366004611aa9565b6113f1565b60c980546104e790611df2565b80601f016020809104026020016040519081016040528092919081815260200182805461051390611df2565b80156105605780601f1061053557610100808354040283529160200191610560565b820191906000526020600020905b81548152906001019060200180831161054357829003601f168201915b505050505081565b6033546001600160a01b0316331461059b5760405162461bcd60e51b815260040161059290611d6f565b60405180910390fd5b6105a361148a565b565b60655460ff16156105c85760405162461bcd60e51b815260040161059290611cf7565b600081815260ca6020526040902060038101546005820154600192916001600160a01b031690831461063c5760405162461bcd60e51b815260206004820152601d60248201527f6269643a2053616c6573206e6f74207374617274206f7220656e6465640000006044820152606401610592565b81600401543410156106875760405162461bcd60e51b81526020600482015260146024820152730c4d2c87440cceadcc840dcdee840cadcdeeaced60631b6044820152606401610592565b60028201546001600160a01b03163314156106f25760405162461bcd60e51b815260206004820152602560248201527f6269643a20627579657220616e642073656c6c65722063616e206e6f742062656044820152642073616d6560d81b6064820152608401610592565b8282600601546107029190611dbc565b60cb60006107186033546001600160a01b031690565b6001600160a01b03166001600160a01b0316815260200190815260200160002060008282546107479190611da4565b9091555050600482015461075c908490611dbc565b3411156107a2578282600401546107739190611dbc565b61077d9034611ddb565b33600090815260cb60205260408120805490919061079c908490611da4565b90915550505b60088201546001600160a01b0316156107f7578282600701546107c59190611dbc565b60088301546001600160a01b0316600090815260cb6020526040812080549091906107f1908490611da4565b90915550505b60028201546007830154600684015460048501546001600160a01b03909316926108fc92879290916108299190611ddb565b6108339190611ddb565b61083d9190611dbc565b6040518115909202916000818181858888f19350505050158015610865573d6000803e3d6000fd5b506001820154604051632142170760e11b81526001600160a01b038316916342842e0e9161089a913091339190600401611be9565b600060405180830381600087803b1580156108b457600080fd5b505af11580156108c8573d6000803e3d6000fd5b505060408051338152602081018890529081018690527f19421268847f42dd61705778018ddfc43bcdce8517e7a630acb12f122c7094819250606001905060405180910390a1600260058301556040518481527fb068776b457cefe34568f0e1ffb0cc2480cf799e77410c955f6e7502d654655d9060200160405180910390a150505050565b606080808080808060008867ffffffffffffffff81111561097f57634e487b7160e01b600052604160045260246000fd5b6040519080825280602002602001820160405280156109a8578160200160208202803683370190505b5097508867ffffffffffffffff8111156109d257634e487b7160e01b600052604160045260246000fd5b6040519080825280602002602001820160405280156109fb578160200160208202803683370190505b5096508867ffffffffffffffff811115610a2557634e487b7160e01b600052604160045260246000fd5b604051908082528060200260200182016040528015610a4e578160200160208202803683370190505b5095508867ffffffffffffffff811115610a7857634e487b7160e01b600052604160045260246000fd5b604051908082528060200260200182016040528015610aa1578160200160208202803683370190505b5094508867ffffffffffffffff811115610acb57634e487b7160e01b600052604160045260246000fd5b604051908082528060200260200182016040528015610af4578160200160208202803683370190505b5093508867ffffffffffffffff811115610b1e57634e487b7160e01b600052604160045260246000fd5b604051908082528060200260200182016040528015610b47578160200160208202803683370190505b5091508867ffffffffffffffff811115610b7157634e487b7160e01b600052604160045260246000fd5b604051908082528060200260200182016040528015610b9a578160200160208202803683370190505b50925060005b89811015610d935760008b8b83818110610bca57634e487b7160e01b600052603260045260246000fd5b90506020020135905060ca6000828152602001908152602001600020925082600101548a8381518110610c0d57634e487b7160e01b600052603260045260246000fd5b6020908102919091010152600283015489516001600160a01b03909116908a9084908110610c4b57634e487b7160e01b600052603260045260246000fd5b60200260200101906001600160a01b031690816001600160a01b0316815250508260040154878381518110610c9057634e487b7160e01b600052603260045260246000fd5b6020908102919091010152600383015488516001600160a01b0390911690899084908110610cce57634e487b7160e01b600052603260045260246000fd5b60200260200101906001600160a01b031690816001600160a01b0316815250508260060154868381518110610d1357634e487b7160e01b600052603260045260246000fd5b6020026020010181815250508260070154848381518110610d4457634e487b7160e01b600052603260045260246000fd5b6020026020010181815250508260050154858381518110610d7557634e487b7160e01b600052603260045260246000fd5b60209081029190910101525080610d8b81611e2d565b915050610ba0565b505092959891949750929550565b60655460ff1615610dc45760405162461bcd60e51b815260040161059290611cf7565b6040516331a9108f60e11b815260048101879052859033906001600160a01b03831690636352211e9060240160206040518083038186803b158015610e0857600080fd5b505afa158015610e1c573d6000803e3d6000fd5b505050506040513d601f19601f82011682018060405250810190610e409190611975565b6001600160a01b031614610e965760405162461bcd60e51b815260206004820152601860248201527f73656c6c3a206e6f74206f776e6572206f6620746f6b656e00000000000000006044820152606401610592565b600088118015610eb85750600088815260ca6020526040902060050154600114155b8015610ec45750600085115b8015610ed85750610ed58385611da4565b85115b610f1d5760405162461bcd60e51b81526020600482015260166024820152751cd95b1b0e881a5b9d985b1a5908185c99dd5b595b9d60521b6044820152606401610592565b604051632142170760e11b81526001600160a01b038216906342842e0e90610f4d90339030908c90600401611be9565b600060405180830381600087803b158015610f6757600080fd5b505af1158015610f7b573d6000803e3d6000fd5b505050600089815260ca60209081526040918290208b815560018082018c9055600282018054336001600160a01b0319918216811790925560038401805482166001600160a01b038f811691909117909155600485018d90556005850193909355600684018b9055600784018a90556008840180549091169289169290921790915583518d81529283015292507f2abf3c9541619dd5825826a0aceeb5dbd5068c5873fbc754497cf5950097d25c910160405180910390a1505050505050505050565b6033546001600160a01b031633146110685760405162461bcd60e51b815260040161059290611d6f565b6105a3600061151d565b6033546001600160a01b0316331461109c5760405162461bcd60e51b815260040161059290611d6f565b6105a361156f565b60655460ff16156110c75760405162461bcd60e51b815260040161059290611cf7565b600081815260ca6020526040902060028101546001600160a01b0316331480156110f5575080600501546001145b6111535760405162461bcd60e51b815260206004820152602960248201527f63616c6c6572206973206e6f74206f776e6572206f722073616c6573206973206044820152681b9bdd081cdd185c9d60ba1b6064820152608401610592565b60036005820181905581015460028201546001830154604051632142170760e11b81526001600160a01b03938416936342842e0e9361119b9330939290911691600401611be9565b600060405180830381600087803b1580156111b557600080fd5b505af11580156111c9573d6000803e3d6000fd5b505050600083815260ca6020526040808220828155600181018390556002810180546001600160a01b03199081169091556003820180548216905560048201849055600582018490556006820184905560078201939093556008018054909216909155517f6ecd7b702bc398299b70a9c417b14d16835121b9df1f7b3036ccf42ee990f6d4915061125d9084815260200190565b60405180910390a15050565b6033546001600160a01b031633146112935760405162461bcd60e51b815260040161059290611d6f565b6001600160a01b0381166112f85760405162461bcd60e51b815260206004820152602660248201527f4f776e61626c653a206e6577206f776e657220697320746865207a65726f206160448201526564647265737360d01b6064820152608401610592565b6113018161151d565b50565b33600090815260cb60205260409020548111156113635760405162461bcd60e51b815260206004820152601b60248201527f77697468647261773a20616d6f756e7420697320696e76616c696400000000006044820152606401610592565b33600090815260cb602052604081208054839290611382908490611ddb565b90915550506040516001600160a01b0383169082156108fc029083906000818181858888f193505050501580156113bd573d6000803e3d6000fd5b507f9b1bfa7fa9ee420a16e124f794c35ac9f90472acc99140eb2f6447c714cad8eb33838360405161125d93929190611be9565b600054610100900460ff168061140a575060005460ff16155b6114265760405162461bcd60e51b815260040161059290611d21565b600054610100900460ff16158015611448576000805461ffff19166101011790555b6114506115c7565b611458611642565b6114606116a9565b81516114739060c9906020850190611843565b508015611486576000805461ff00191690555b5050565b60655460ff166114d35760405162461bcd60e51b815260206004820152601460248201527314185d5cd8589b194e881b9bdd081c185d5cd95960621b6044820152606401610592565b6065805460ff191690557f5db9ee0a495bf2e6ff9c91a7834c1ba4fdd244a5e8aa4e537bd38aeae4b073aa335b6040516001600160a01b03909116815260200160405180910390a1565b603380546001600160a01b038381166001600160a01b0319831681179093556040519116919082907f8be0079c531659141344cd1fd0a4f28419497f9722a3daafe3b4186f6b6457e090600090a35050565b60655460ff16156115925760405162461bcd60e51b815260040161059290611cf7565b6065805460ff191660011790557f62e78cea01bee320cd4e420270b5ea74000d11b0c9f74754ebdbfc544b05a2586115003390565b600054610100900460ff16806115e0575060005460ff16155b6115fc5760405162461bcd60e51b815260040161059290611d21565b600054610100900460ff1615801561161e576000805461ffff19166101011790555b611626611704565b61162e61176e565b8015611301576000805461ff001916905550565b600054610100900460ff168061165b575060005460ff16155b6116775760405162461bcd60e51b815260040161059290611d21565b600054610100900460ff16158015611699576000805461ffff19166101011790555b6116a1611704565b61162e6117ce565b600054610100900460ff16806116c2575060005460ff16155b6116de5760405162461bcd60e51b815260040161059290611d21565b600054610100900460ff16158015611700576000805461ffff19166101011790555b61162e5b600054610100900460ff168061171d575060005460ff16155b6117395760405162461bcd60e51b815260040161059290611d21565b600054610100900460ff1615801561162e576000805461ffff19166101011790558015611301576000805461ff001916905550565b600054610100900460ff1680611787575060005460ff16155b6117a35760405162461bcd60e51b815260040161059290611d21565b600054610100900460ff161580156117c5576000805461ffff19166101011790555b61162e3361151d565b600054610100900460ff16806117e7575060005460ff16155b6118035760405162461bcd60e51b815260040161059290611d21565b600054610100900460ff16158015611825576000805461ffff19166101011790555b6065805460ff191690558015611301576000805461ff001916905550565b82805461184f90611df2565b90600052602060002090601f01602090048101928261187157600085556118b7565b82601f1061188a57805160ff19168380011785556118b7565b828001600101855582156118b7579182015b828111156118b757825182559160200191906001019061189c565b506118c39291506118c7565b5090565b5b808211156118c357600081556001016118c8565b600067ffffffffffffffff808411156118f7576118f7611e5e565b604051601f8501601f19908116603f0116810190828211818310171561191f5761191f611e5e565b8160405280935085815286868601111561193857600080fd5b858560208301376000602087830101525050509392505050565b600060208284031215611963578081fd5b813561196e81611e74565b9392505050565b600060208284031215611986578081fd5b815161196e81611e74565b600080604083850312156119a3578081fd5b82356119ae81611e74565b946020939093013593505050565b600080600080608085870312156119d1578182fd5b84356119dc81611e74565b935060208501356119ec81611e74565b925060408501359150606085013567ffffffffffffffff811115611a0e578182fd5b8501601f81018713611a1e578182fd5b611a2d878235602084016118dc565b91505092959194509250565b60008060208385031215611a4b578182fd5b823567ffffffffffffffff80821115611a62578384fd5b818501915085601f830112611a75578384fd5b813581811115611a83578485fd5b8660208260051b8501011115611a97578485fd5b60209290920196919550909350505050565b600060208284031215611aba578081fd5b813567ffffffffffffffff811115611ad0578182fd5b8201601f81018413611ae0578182fd5b611aef848235602084016118dc565b949350505050565b600060208284031215611b08578081fd5b5035919050565b600080600080600080600060e0888a031215611b29578283fd5b87359650602088013595506040880135611b4281611e74565b9450606088013593506080880135925060a0880135915060c0880135611b6781611e74565b8091505092959891949750929550565b6000815180845260208085019450808401835b83811015611baf5781516001600160a01b031687529582019590820190600101611b8a565b509495945050505050565b6000815180845260208085019450808401835b83811015611baf57815187529582019590820190600101611bcd565b6001600160a01b039384168152919092166020820152604081019190915260600190565b60e081526000611c2060e083018a611bba565b8281036020840152611c32818a611b77565b90508281036040840152611c468189611b77565b90508281036060840152611c5a8188611bba565b90508281036080840152611c6e8187611bba565b905082810360a0840152611c828186611bba565b905082810360c0840152611c968185611bba565b9a9950505050505050505050565b6000602080835283518082850152825b81811015611cd057858101830151858201604001528201611cb4565b81811115611ce15783604083870101525b50601f01601f1916929092016040019392505050565b60208082526010908201526f14185d5cd8589b194e881c185d5cd95960821b604082015260600190565b6020808252602e908201527f496e697469616c697a61626c653a20636f6e747261637420697320616c72656160408201526d191e481a5b9a5d1a585b1a5e995960921b606082015260800190565b6020808252818101527f4f776e61626c653a2063616c6c6572206973206e6f7420746865206f776e6572604082015260600190565b60008219821115611db757611db7611e48565b500190565b6000816000190483118215151615611dd657611dd6611e48565b500290565b600082821015611ded57611ded611e48565b500390565b600181811c90821680611e0657607f821691505b60208210811415611e2757634e487b7160e01b600052602260045260246000fd5b50919050565b6000600019821415611e4157611e41611e48565b5060010190565b634e487b7160e01b600052601160045260246000fd5b634e487b7160e01b600052604160045260246000fd5b6001600160a01b038116811461130157600080fdfea2646970667358221220bcf6e0050fe155b75f09c25ebdd961db31122f086dbbca6ea48c15287ec6981864736f6c63430008040033",
  "linkReferences": {},
  "deployedLinkReferences": {}
}