{
  "_format": "hh-sol-artifact-1",
  "contractName": "IVPSales1155",
  "sourceName": "contracts/IVPSales1155.sol",
  "abi": [
    {
      "inputs": [],
      "stateMutability": "nonpayable",
      "type": "constructor"
    },
    {
      "anonymous": false,
      "inputs": [
        {
          "indexed": false,
          "internalType": "address",
          "name": "_from",
          "type": "address"
        },
        {
          "indexed": false,
          "internalType": "uint256",
          "name": "_id",
          "type": "uint256"
        },
        {
          "indexed": false,
          "internalType": "uint256",
          "name": "amount",
          "type": "uint256"
        }
      ],
      "name": "Bid",
      "type": "event"
    },
    {
      "anonymous": false,
      "inputs": [
        {
          "indexed": false,
          "internalType": "uint256",
          "name": "_id",
          "type": "uint256"
        }
      ],
      "name": "CancelSale",
      "type": "event"
    },
    {
      "anonymous": false,
      "inputs": [
        {
          "indexed": false,
          "internalType": "uint256",
          "name": "_id",
          "type": "uint256"
        },
        {
          "indexed": false,
          "internalType": "address",
          "name": "seller",
          "type": "address"
        }
      ],
      "name": "List",
      "type": "event"
    },
    {
      "anonymous": false,
      "inputs": [
        {
          "indexed": true,
          "internalType": "address",
          "name": "previousOwner",
          "type": "address"
        },
        {
          "indexed": true,
          "internalType": "address",
          "name": "newOwner",
          "type": "address"
        }
      ],
      "name": "OwnershipTransferred",
      "type": "event"
    },
    {
      "anonymous": false,
      "inputs": [
        {
          "indexed": false,
          "internalType": "address",
          "name": "account",
          "type": "address"
        }
      ],
      "name": "Paused",
      "type": "event"
    },
    {
      "anonymous": false,
      "inputs": [
        {
          "indexed": false,
          "internalType": "uint256",
          "name": "_id",
          "type": "uint256"
        }
      ],
      "name": "SaleFinished",
      "type": "event"
    },
    {
      "anonymous": false,
      "inputs": [
        {
          "indexed": false,
          "internalType": "address",
          "name": "account",
          "type": "address"
        }
      ],
      "name": "Unpaused",
      "type": "event"
    },
    {
      "anonymous": false,
      "inputs": [
        {
          "indexed": false,
          "internalType": "address",
          "name": "_operator",
          "type": "address"
        },
        {
          "indexed": false,
          "internalType": "address",
          "name": "_to",
          "type": "address"
        },
        {
          "indexed": false,
          "internalType": "uint256",
          "name": "amount",
          "type": "uint256"
        }
      ],
      "name": "Withdraw",
      "type": "event"
    },
    {
      "inputs": [
        {
          "internalType": "address",
          "name": "",
          "type": "address"
        }
      ],
      "name": "balanceOf",
      "outputs": [
        {
          "internalType": "uint256",
          "name": "",
          "type": "uint256"
        }
      ],
      "stateMutability": "view",
      "type": "function"
    },
    {
      "inputs": [
        {
          "internalType": "uint256",
          "name": "_id",
          "type": "uint256"
        },
        {
          "internalType": "uint256",
          "name": "amount",
          "type": "uint256"
        }
      ],
      "name": "bid",
      "outputs": [],
      "stateMutability": "payable",
      "type": "function"
    },
    {
      "inputs": [
        {
          "internalType": "uint256",
          "name": "_id",
          "type": "uint256"
        }
      ],
      "name": "cancelSales",
      "outputs": [],
      "stateMutability": "nonpayable",
      "type": "function"
    },
    {
      "inputs": [
        {
          "internalType": "string",
          "name": "_name",
          "type": "string"
        }
      ],
      "name": "initialize",
      "outputs": [],
      "stateMutability": "nonpayable",
      "type": "function"
    },
    {
      "inputs": [],
      "name": "name",
      "outputs": [
        {
          "internalType": "string",
          "name": "",
          "type": "string"
        }
      ],
      "stateMutability": "view",
      "type": "function"
    },
    {
      "inputs": [
        {
          "internalType": "address",
          "name": "",
          "type": "address"
        },
        {
          "internalType": "address",
          "name": "",
          "type": "address"
        },
        {
          "internalType": "uint256[]",
          "name": "",
          "type": "uint256[]"
        },
        {
          "internalType": "uint256[]",
          "name": "",
          "type": "uint256[]"
        },
        {
          "internalType": "bytes",
          "name": "",
          "type": "bytes"
        }
      ],
      "name": "onERC1155BatchReceived",
      "outputs": [
        {
          "internalType": "bytes4",
          "name": "",
          "type": "bytes4"
        }
      ],
      "stateMutability": "nonpayable",
      "type": "function"
    },
    {
      "inputs": [
        {
          "internalType": "address",
          "name": "",
          "type": "address"
        },
        {
          "internalType": "address",
          "name": "",
          "type": "address"
        },
        {
          "internalType": "uint256",
          "name": "",
          "type": "uint256"
        },
        {
          "internalType": "uint256",
          "name": "",
          "type": "uint256"
        },
        {
          "internalType": "bytes",
          "name": "",
          "type": "bytes"
        }
      ],
      "name": "onERC1155Received",
      "outputs": [
        {
          "internalType": "bytes4",
          "name": "",
          "type": "bytes4"
        }
      ],
      "stateMutability": "nonpayable",
      "type": "function"
    },
    {
      "inputs": [],
      "name": "owner",
      "outputs": [
        {
          "internalType": "address",
          "name": "",
          "type": "address"
        }
      ],
      "stateMutability": "view",
      "type": "function"
    },
    {
      "inputs": [],
      "name": "pause",
      "outputs": [],
      "stateMutability": "nonpayable",
      "type": "function"
    },
    {
      "inputs": [],
      "name": "paused",
      "outputs": [
        {
          "internalType": "bool",
          "name": "",
          "type": "bool"
        }
      ],
      "stateMutability": "view",
      "type": "function"
    },
    {
      "inputs": [],
      "name": "renounceOwnership",
      "outputs": [],
      "stateMutability": "nonpayable",
      "type": "function"
    },
    {
      "inputs": [
        {
          "internalType": "uint256",
          "name": "",
          "type": "uint256"
        }
      ],
      "name": "sales",
      "outputs": [
        {
          "internalType": "uint256",
          "name": "id",
          "type": "uint256"
        },
        {
          "internalType": "uint256",
          "name": "tokenid",
          "type": "uint256"
        },
        {
          "internalType": "address",
          "name": "tokenAddress",
          "type": "address"
        },
        {
          "internalType": "address",
          "name": "seller",
          "type": "address"
        },
        {
          "internalType": "uint256",
          "name": "price",
          "type": "uint256"
        },
        {
          "internalType": "uint256",
          "name": "amount",
          "type": "uint256"
        },
        {
          "internalType": "uint256",
          "name": "status",
          "type": "uint256"
        },
        {
          "internalType": "uint256",
          "name": "fee",
          "type": "uint256"
        },
        {
          "internalType": "uint256",
          "name": "r_fee",
          "type": "uint256"
        },
        {
          "internalType": "address",
          "name": "r_fee_addr",
          "type": "address"
        }
      ],
      "stateMutability": "view",
      "type": "function"
    },
    {
      "inputs": [
        {
          "internalType": "uint256",
          "name": "_id",
          "type": "uint256"
        }
      ],
      "name": "salesInfo",
      "outputs": [
        {
          "internalType": "uint256",
          "name": "tokenid",
          "type": "uint256"
        },
        {
          "internalType": "address",
          "name": "tokenAddress",
          "type": "address"
        },
        {
          "internalType": "address",
          "name": "seller",
          "type": "address"
        },
        {
          "internalType": "uint256",
          "name": "price",
          "type": "uint256"
        },
        {
          "internalType": "uint256",
          "name": "amount",
          "type": "uint256"
        },
        {
          "internalType": "uint256",
          "name": "fee",
          "type": "uint256"
        },
        {
          "internalType": "uint256",
          "name": "status",
          "type": "uint256"
        },
        {
          "internalType": "uint256",
          "name": "r_fee",
          "type": "uint256"
        }
      ],
      "stateMutability": "view",
      "type": "function"
    },
    {
      "inputs": [
        {
          "internalType": "uint256[]",
          "name": "ids",
          "type": "uint256[]"
        }
      ],
      "name": "salesInfoBatch",
      "outputs": [
        {
          "internalType": "uint256[]",
          "name": "tokenid",
          "type": "uint256[]"
        },
        {
          "internalType": "address[]",
          "name": "tokenAddress",
          "type": "address[]"
        },
        {
          "internalType": "address[]",
          "name": "seller",
          "type": "address[]"
        },
        {
          "internalType": "uint256[]",
          "name": "price",
          "type": "uint256[]"
        },
        {
          "internalType": "uint256[]",
          "name": "amount",
          "type": "uint256[]"
        },
        {
          "internalType": "uint256[]",
          "name": "fee",
          "type": "uint256[]"
        },
        {
          "internalType": "uint256[]",
          "name": "status",
          "type": "uint256[]"
        },
        {
          "internalType": "uint256[]",
          "name": "r_fee",
          "type": "uint256[]"
        }
      ],
      "stateMutability": "view",
      "type": "function"
    },
    {
      "inputs": [
        {
          "internalType": "uint256",
          "name": "_id",
          "type": "uint256"
        },
        {
          "internalType": "uint256",
          "name": "tokenid",
          "type": "uint256"
        },
        {
          "internalType": "address",
          "name": "tokenAddress",
          "type": "address"
        },
        {
          "internalType": "uint256",
          "name": "amount",
          "type": "uint256"
        },
        {
          "internalType": "uint256",
          "name": "price",
          "type": "uint256"
        },
        {
          "internalType": "uint256",
          "name": "fee",
          "type": "uint256"
        },
        {
          "internalType": "uint256",
          "name": "r_fee",
          "type": "uint256"
        },
        {
          "internalType": "address",
          "name": "r_fee_addr",
          "type": "address"
        }
      ],
      "name": "startSales",
      "outputs": [],
      "stateMutability": "nonpayable",
      "type": "function"
    },
    {
      "inputs": [
        {
          "internalType": "bytes4",
          "name": "interfaceId",
          "type": "bytes4"
        }
      ],
      "name": "supportsInterface",
      "outputs": [
        {
          "internalType": "bool",
          "name": "",
          "type": "bool"
        }
      ],
      "stateMutability": "view",
      "type": "function"
    },
    {
      "inputs": [
        {
          "internalType": "address",
          "name": "newOwner",
          "type": "address"
        }
      ],
      "name": "transferOwnership",
      "outputs": [],
      "stateMutability": "nonpayable",
      "type": "function"
    },
    {
      "inputs": [],
      "name": "unpause",
      "outputs": [],
      "stateMutability": "nonpayable",
      "type": "function"
    },
    {
      "inputs": [
        {
          "internalType": "address payable",
          "name": "_to",
          "type": "address"
        },
        {
          "internalType": "uint256",
          "name": "amount",
          "type": "uint256"
        }
      ],
      "name": "withdraw",
      "outputs": [],
      "stateMutability": "nonpayable",
      "type": "function"
    }
  ],
  "bytecode": "0x608060405234801561001057600080fd5b506124e7806100206000396000f3fe6080604052600436106101145760003560e01c8063715018a6116100a0578063bc197c8111610064578063bc197c8114610493578063f23a6e61146104d8578063f2fde38b14610504578063f3fef3a314610524578063f62d18881461054457600080fd5b8063715018a61461034e5780638456cb59146103635780638da5cb5b14610378578063942ec85a146103a0578063b5f522f7146103c057600080fd5b80633f4ba83a116100e75780633f4ba83a1461029e57806350cb9756146102b3578063598647f8146102e75780635c975abb146102fa57806370a082311461031257600080fd5b806301ffc9a71461011957806306fdde031461014e578063351c3896146101705780633a28ab5c1461027c575b600080fd5b34801561012557600080fd5b50610139610134366004612000565b610564565b60405190151581526020015b60405180910390f35b34801561015a57600080fd5b5061016361059b565b604051610145919061229c565b34801561017c57600080fd5b5061023561018b366004612075565b600090815261012e602090815260409182902082516101408101845281548152600182015492810183905260028201546001600160a01b039081169482018590526003830154811660608301819052600484015460808401819052600585015460a08501819052600686015460c08601819052600787015460e087018190526008880154610100880181905260099098015490951661012090960195909552959791959094909391565b604080519889526001600160a01b0397881660208a015295909616948701949094526060860192909252608085015260a084015260c083015260e082015261010001610145565b34801561028857600080fd5b5061029c6102973660046120c6565b61062a565b005b3480156102aa57600080fd5b5061029c610a14565b3480156102bf57600080fd5b506102d36102ce366004611f91565b610a48565b6040516101459897969594939291906121ed565b61029c6102f53660046120a5565b610fef565b34801561030657600080fd5b5060655460ff16610139565b34801561031e57600080fd5b5061034061032d366004611e3b565b61012f6020526000908152604090205481565b604051908152602001610145565b34801561035a57600080fd5b5061029c611457565b34801561036f57600080fd5b5061029c61148b565b34801561038457600080fd5b506033546040516001600160a01b039091168152602001610145565b3480156103ac57600080fd5b5061029c6103bb366004612075565b6114bd565b3480156103cc57600080fd5b5061043a6103db366004612075565b61012e602052600090815260409020805460018201546002830154600384015460048501546005860154600687015460078801546008890154600990990154979896976001600160a01b0396871697958716969495939492939192168a565b604080519a8b5260208b01999099526001600160a01b03978816988a01989098529486166060890152608088019390935260a087019190915260c086015260e08501526101008401521661012082015261014001610145565b34801561049f57600080fd5b506104bf6104ae366004611e82565b63bc197c8160e01b95945050505050565b6040516001600160e01b03199091168152602001610145565b3480156104e457600080fd5b506104bf6104f3366004611f2b565b63f23a6e6160e01b95945050505050565b34801561051057600080fd5b5061029c61051f366004611e3b565b6116a3565b34801561053057600080fd5b5061029c61053f366004611e57565b61173e565b34801561055057600080fd5b5061029c61055f366004612028565b611840565b60006001600160e01b03198216630271189760e51b148061059557506301ffc9a760e01b6001600160e01b03198316145b92915050565b61012d80546105a99061241a565b80601f01602080910402602001604051908101604052809291908181526020018280546105d59061241a565b80156106225780601f106105f757610100808354040283529160200191610622565b820191906000526020600020905b81548152906001019060200180831161060557829003601f168201915b505050505081565b60655460ff16156106565760405162461bcd60e51b815260040161064d906122ef565b60405180910390fd5b604051627eeac760e11b815233600482015260248101889052869086906001600160a01b0383169062fdd58e9060440160206040518083038186803b15801561069e57600080fd5b505afa1580156106b2573d6000803e3d6000fd5b505050506040513d601f19601f820116820180604052508101906106d6919061208d565b10156107245760405162461bcd60e51b815260206004820152601f60248201527f73656c6c3a206e6f7420656e6f75676820616d6f756e7420746f2073656c6c00604482015260640161064d565b6000891180156107415750600089815261012e6020526040902054155b801561074d5750600086115b80156107595750600085115b801561076d575061076a83856123cc565b85115b6107b25760405162461bcd60e51b81526020600482015260166024820152751cd95b1b0e881a5b9d985b1a5908185c99dd5b595b9d60521b604482015260640161064d565b8215806107d257506000831180156107d257506001600160a01b03821615155b61081e5760405162461bcd60e51b815260206004820152601860248201527f73656c6c3a20696e76616c696420725f6665655f616464720000000000000000604482015260640161064d565b60006040518061014001604052808b81526020018a8152602001896001600160a01b03168152602001336001600160a01b0316815260200187815260200188815260200160018152602001868152602001858152602001846001600160a01b031681525090508061012e60008c8152602001908152602001600020600082015181600001556020820151816001015560408201518160020160006101000a8154816001600160a01b0302191690836001600160a01b0316021790555060608201518160030160006101000a8154816001600160a01b0302191690836001600160a01b031602179055506080820151816004015560a0820151816005015560c0820151816006015560e0820151816007015561010082015181600801556101208201518160090160006101000a8154816001600160a01b0302191690836001600160a01b03160217905550905050816001600160a01b031663f242432a33308c8b6040518563ffffffff1660e01b815260040161099d94939291906121aa565b600060405180830381600087803b1580156109b757600080fd5b505af11580156109cb573d6000803e3d6000fd5b5050604080518d81523360208201527f2abf3c9541619dd5825826a0aceeb5dbd5068c5873fbc754497cf5950097d25c935001905060405180910390a150505050505050505050565b6033546001600160a01b03163314610a3e5760405162461bcd60e51b815260040161064d90612367565b610a466118da565b565b606080606080606080606080610ac5604051806101400160405280600081526020016000815260200160006001600160a01b0316815260200160006001600160a01b03168152602001600081526020016000815260200160008152602001600081526020016000815260200160006001600160a01b031681525090565b896001600160401b03811115610aeb57634e487b7160e01b600052604160045260246000fd5b604051908082528060200260200182016040528015610b14578160200160208202803683370190505b509850896001600160401b03811115610b3d57634e487b7160e01b600052604160045260246000fd5b604051908082528060200260200182016040528015610b66578160200160208202803683370190505b509750896001600160401b03811115610b8f57634e487b7160e01b600052604160045260246000fd5b604051908082528060200260200182016040528015610bb8578160200160208202803683370190505b509650896001600160401b03811115610be157634e487b7160e01b600052604160045260246000fd5b604051908082528060200260200182016040528015610c0a578160200160208202803683370190505b509450896001600160401b03811115610c3357634e487b7160e01b600052604160045260246000fd5b604051908082528060200260200182016040528015610c5c578160200160208202803683370190505b509550896001600160401b03811115610c8557634e487b7160e01b600052604160045260246000fd5b604051908082528060200260200182016040528015610cae578160200160208202803683370190505b509350896001600160401b03811115610cd757634e487b7160e01b600052604160045260246000fd5b604051908082528060200260200182016040528015610d00578160200160208202803683370190505b509150896001600160401b03811115610d2957634e487b7160e01b600052604160045260246000fd5b604051908082528060200260200182016040528015610d52578160200160208202803683370190505b50925060005b8a811015610fe05760008c8c83818110610d8257634e487b7160e01b600052603260045260246000fd5b60209081029290920135600081815261012e845260409081902081516101408101835281548152600182015495810186905260028201546001600160a01b039081169382019390935260038201548316606082015260048201546080820152600582015460a0820152600682015460c0820152600782015460e082015260088201546101008201526009909101549091166101208201528e519096509093508d915084908110610e4257634e487b7160e01b600052603260045260246000fd5b60200260200101818152505082604001518a8381518110610e7357634e487b7160e01b600052603260045260246000fd5b60200260200101906001600160a01b031690816001600160a01b0316815250508260600151898381518110610eb857634e487b7160e01b600052603260045260246000fd5b60200260200101906001600160a01b031690816001600160a01b0316815250508260800151888381518110610efd57634e487b7160e01b600052603260045260246000fd5b6020026020010181815250508260a00151878381518110610f2e57634e487b7160e01b600052603260045260246000fd5b6020026020010181815250508260e00151868381518110610f5f57634e487b7160e01b600052603260045260246000fd5b6020026020010181815250508260c00151858381518110610f9057634e487b7160e01b600052603260045260246000fd5b602002602001018181525050826101000151848381518110610fc257634e487b7160e01b600052603260045260246000fd5b60209081029190910101525080610fd881612455565b915050610d58565b50509295985092959890939650565b60655460ff16156110125760405162461bcd60e51b815260040161064d906122ef565b600082815261012e60205260409020816110665760405162461bcd60e51b8152602060048201526015602482015274189a590e881a5b9d985b1a5908185c99dd5b595b9d605a1b604482015260640161064d565b80600601546001146110ba5760405162461bcd60e51b815260206004820152601d60248201527f6269643a2053616c6573206e6f74207374617274206f7220656e646564000000604482015260640161064d565b818160050154101561110e5760405162461bcd60e51b815260206004820152601c60248201527f6269643a20746f6b656e20616d6f756e74206e6f7420656e6f75676800000000604482015260640161064d565b81816004015461111e91906123e4565b3410156111645760405162461bcd60e51b81526020600482015260146024820152730c4d2c87440cceadcc840dcdee840cadcdeeaced60631b604482015260640161064d565b60038101546001600160a01b03163314156111cf5760405162461bcd60e51b815260206004820152602560248201527f6269643a20627579657220616e642073656c6c65722063616e206e6f742062656044820152642073616d6560d81b606482015260840161064d565b818160050160008282546111e39190612403565b909155505060078101546111f89083906123e4565b61012f600061120f6033546001600160a01b031690565b6001600160a01b03166001600160a01b03168152602001908152602001600020600082825461123e91906123cc565b909155505060048101546112539083906123e4565b34111561129a5781816004015461126a91906123e4565b6112749034612403565b33600090815261012f6020526040812080549091906112949084906123cc565b90915550505b60098101546001600160a01b0316156112f0578181600801546112bd91906123e4565b60098201546001600160a01b0316600090815261012f6020526040812080549091906112ea9084906123cc565b90915550505b60038101546008820154600783015460048401546001600160a01b03909316926108fc92869290916113229190612403565b61132c9190612403565b61133691906123e4565b6040518115909202916000818181858888f1935050505015801561135e573d6000803e3d6000fd5b5060028101546001820154604051637921219560e11b81526001600160a01b039092169163f242432a9161139a913091339188906004016121aa565b600060405180830381600087803b1580156113b457600080fd5b505af11580156113c8573d6000803e3d6000fd5b505060408051338152602081018790529081018590527f19421268847f42dd61705778018ddfc43bcdce8517e7a630acb12f122c7094819250606001905060405180910390a1600581015461145257600260068201556040518381527fb068776b457cefe34568f0e1ffb0cc2480cf799e77410c955f6e7502d654655d9060200160405180910390a15b505050565b6033546001600160a01b031633146114815760405162461bcd60e51b815260040161064d90612367565b610a46600061196d565b6033546001600160a01b031633146114b55760405162461bcd60e51b815260040161064d90612367565b610a466119bf565b60655460ff16156114e05760405162461bcd60e51b815260040161064d906122ef565b600081815261012e6020526040902060038101546001600160a01b03163314801561150f575080600601546001145b61156d5760405162461bcd60e51b815260206004820152602960248201527f63616c6c6572206973206e6f74206f776e6572206f722073616c6573206973206044820152681b9bdd081cdd185c9d60ba1b606482015260840161064d565b600082815261012e60205260409081902060036006909101819055600283015490830154600184015460058501549351637921219560e11b81526001600160a01b039384169463f242432a946115cd9430949116929091906004016121aa565b600060405180830381600087803b1580156115e757600080fd5b505af11580156115fb573d6000803e3d6000fd5b505050600083815261012e6020526040808220828155600181018390556002810180546001600160a01b0319908116909155600382018054821690556004820184905560058201849055600682018490556007820184905560088201939093556009018054909216909155517f6ecd7b702bc398299b70a9c417b14d16835121b9df1f7b3036ccf42ee990f6d491506116979084815260200190565b60405180910390a15050565b6033546001600160a01b031633146116cd5760405162461bcd60e51b815260040161064d90612367565b6001600160a01b0381166117325760405162461bcd60e51b815260206004820152602660248201527f4f776e61626c653a206e6577206f776e657220697320746865207a65726f206160448201526564647265737360d01b606482015260840161064d565b61173b8161196d565b50565b33600090815261012f602052604090205481111561179e5760405162461bcd60e51b815260206004820152601b60248201527f77697468647261773a20616d6f756e7420697320696e76616c69640000000000604482015260640161064d565b33600090815261012f6020526040812080548392906117be908490612403565b90915550506040516001600160a01b0383169082156108fc029083906000818181858888f193505050501580156117f9573d6000803e3d6000fd5b50604080513381526001600160a01b03841660208201529081018290527f9b1bfa7fa9ee420a16e124f794c35ac9f90472acc99140eb2f6447c714cad8eb90606001611697565b600054610100900460ff1680611859575060005460ff16155b6118755760405162461bcd60e51b815260040161064d90612319565b600054610100900460ff16158015611897576000805461ffff19166101011790555b61189f611a17565b6118a7611a92565b6118af611af9565b81516118c39061012d906020850190611ca3565b5080156118d6576000805461ff00191690555b5050565b60655460ff166119235760405162461bcd60e51b815260206004820152601460248201527314185d5cd8589b194e881b9bdd081c185d5cd95960621b604482015260640161064d565b6065805460ff191690557f5db9ee0a495bf2e6ff9c91a7834c1ba4fdd244a5e8aa4e537bd38aeae4b073aa335b6040516001600160a01b03909116815260200160405180910390a1565b603380546001600160a01b038381166001600160a01b0319831681179093556040519116919082907f8be0079c531659141344cd1fd0a4f28419497f9722a3daafe3b4186f6b6457e090600090a35050565b60655460ff16156119e25760405162461bcd60e51b815260040161064d906122ef565b6065805460ff191660011790557f62e78cea01bee320cd4e420270b5ea74000d11b0c9f74754ebdbfc544b05a2586119503390565b600054610100900460ff1680611a30575060005460ff16155b611a4c5760405162461bcd60e51b815260040161064d90612319565b600054610100900460ff16158015611a6e576000805461ffff19166101011790555b611a76611b64565b611a7e611bce565b801561173b576000805461ff001916905550565b600054610100900460ff1680611aab575060005460ff16155b611ac75760405162461bcd60e51b815260040161064d90612319565b600054610100900460ff16158015611ae9576000805461ffff19166101011790555b611af1611b64565b611a7e611c2e565b600054610100900460ff1680611b12575060005460ff16155b611b2e5760405162461bcd60e51b815260040161064d90612319565b600054610100900460ff16158015611b50576000805461ffff19166101011790555b611b58611b64565b611b60611b64565b611a7e5b600054610100900460ff1680611b7d575060005460ff16155b611b995760405162461bcd60e51b815260040161064d90612319565b600054610100900460ff16158015611a7e576000805461ffff1916610101179055801561173b576000805461ff001916905550565b600054610100900460ff1680611be7575060005460ff16155b611c035760405162461bcd60e51b815260040161064d90612319565b600054610100900460ff16158015611c25576000805461ffff19166101011790555b611a7e3361196d565b600054610100900460ff1680611c47575060005460ff16155b611c635760405162461bcd60e51b815260040161064d90612319565b600054610100900460ff16158015611c85576000805461ffff19166101011790555b6065805460ff19169055801561173b576000805461ff001916905550565b828054611caf9061241a565b90600052602060002090601f016020900481019282611cd15760008555611d17565b82601f10611cea57805160ff1916838001178555611d17565b82800160010185558215611d17579182015b82811115611d17578251825591602001919060010190611cfc565b50611d23929150611d27565b5090565b5b80821115611d235760008155600101611d28565b60006001600160401b03831115611d5557611d55612486565b611d68601f8401601f191660200161239c565b9050828152838383011115611d7c57600080fd5b828260208301376000602084830101529392505050565b600082601f830112611da3578081fd5b813560206001600160401b03821115611dbe57611dbe612486565b8160051b611dcd82820161239c565b838152828101908684018388018501891015611de7578687fd5b8693505b85841015611e09578035835260019390930192918401918401611deb565b50979650505050505050565b600082601f830112611e25578081fd5b611e3483833560208501611d3c565b9392505050565b600060208284031215611e4c578081fd5b8135611e348161249c565b60008060408385031215611e69578081fd5b8235611e748161249c565b946020939093013593505050565b600080600080600060a08688031215611e99578081fd5b8535611ea48161249c565b94506020860135611eb48161249c565b935060408601356001600160401b0380821115611ecf578283fd5b611edb89838a01611d93565b94506060880135915080821115611ef0578283fd5b611efc89838a01611d93565b93506080880135915080821115611f11578283fd5b50611f1e88828901611e15565b9150509295509295909350565b600080600080600060a08688031215611f42578081fd5b8535611f4d8161249c565b94506020860135611f5d8161249c565b9350604086013592506060860135915060808601356001600160401b03811115611f85578182fd5b611f1e88828901611e15565b60008060208385031215611fa3578182fd5b82356001600160401b0380821115611fb9578384fd5b818501915085601f830112611fcc578384fd5b813581811115611fda578485fd5b8660208260051b8501011115611fee578485fd5b60209290920196919550909350505050565b600060208284031215612011578081fd5b81356001600160e01b031981168114611e34578182fd5b600060208284031215612039578081fd5b81356001600160401b0381111561204e578182fd5b8201601f8101841361205e578182fd5b61206d84823560208401611d3c565b949350505050565b600060208284031215612086578081fd5b5035919050565b60006020828403121561209e578081fd5b5051919050565b600080604083850312156120b7578182fd5b50508035926020909101359150565b600080600080600080600080610100898b0312156120e2578283fd5b883597506020890135965060408901356120fb8161249c565b9550606089013594506080890135935060a0890135925060c0890135915060e08901356121278161249c565b809150509295985092959890939650565b6000815180845260208085019450808401835b838110156121705781516001600160a01b03168752958201959082019060010161214b565b509495945050505050565b6000815180845260208085019450808401835b838110156121705781518752958201959082019060010161218e565b6001600160a01b0394851681529290931660208301526040820152606081019190915260a06080820181905260029082015261060f60f31b60c082015260e00190565b60006101008083526122018184018c61217b565b90508281036020840152612215818b612138565b90508281036040840152612229818a612138565b9050828103606084015261223d818961217b565b90508281036080840152612251818861217b565b905082810360a0840152612265818761217b565b905082810360c0840152612279818661217b565b905082810360e084015261228d818561217b565b9b9a5050505050505050505050565b6000602080835283518082850152825b818110156122c8578581018301518582016040015282016122ac565b818111156122d95783604083870101525b50601f01601f1916929092016040019392505050565b60208082526010908201526f14185d5cd8589b194e881c185d5cd95960821b604082015260600190565b6020808252602e908201527f496e697469616c697a61626c653a20636f6e747261637420697320616c72656160408201526d191e481a5b9a5d1a585b1a5e995960921b606082015260800190565b6020808252818101527f4f776e61626c653a2063616c6c6572206973206e6f7420746865206f776e6572604082015260600190565b604051601f8201601f191681016001600160401b03811182821017156123c4576123c4612486565b604052919050565b600082198211156123df576123df612470565b500190565b60008160001904831182151516156123fe576123fe612470565b500290565b60008282101561241557612415612470565b500390565b600181811c9082168061242e57607f821691505b6020821081141561244f57634e487b7160e01b600052602260045260246000fd5b50919050565b600060001982141561246957612469612470565b5060010190565b634e487b7160e01b600052601160045260246000fd5b634e487b7160e01b600052604160045260246000fd5b6001600160a01b038116811461173b57600080fdfea2646970667358221220b8117b14e94db0975d2d5f29f15c1c61fc080831ed633af0629270b03818494864736f6c63430008040033",
  "linkReferences": {},
  "deployedLinkReferences": {}
}