{
    "_format": "hh-sol-artifact-1",
    "contractName": "Proxy2",
    "sourceName": "contracts/proxy2.sol",
    "abi": [
        {
            "inputs": [
                {
                    "internalType": "address",
                    "name": "_owner",
                    "type": "address"
                },
                {
                    "internalType": "address",
                    "name": "_implement",
                    "type": "address"
                },
                {
                    "internalType": "bytes",
                    "name": "_data",
                    "type": "bytes"
                }
            ],
            "stateMutability": "nonpayable",
            "type": "constructor"
        },
        {
            "anonymous": false,
            "inputs": [
                {
                    "indexed": false,
                    "internalType": "address",
                    "name": "previousAdmin",
                    "type": "address"
                },
                {
                    "indexed": false,
                    "internalType": "address",
                    "name": "newAdmin",
                    "type": "address"
                }
            ],
            "name": "AdminChanged",
            "type": "event"
        },
        {
            "anonymous": false,
            "inputs": [
                {
                    "indexed": true,
                    "internalType": "address",
                    "name": "beacon",
                    "type": "address"
                }
            ],
            "name": "BeaconUpgraded",
            "type": "event"
        },
        {
            "anonymous": false,
            "inputs": [
                {
                    "indexed": true,
                    "internalType": "address",
                    "name": "implementation",
                    "type": "address"
                }
            ],
            "name": "Upgraded",
            "type": "event"
        },
        {
            "stateMutability": "payable",
            "type": "fallback"
        },
        {
            "inputs": [],
            "name": "getAdmin",
            "outputs": [
                {
                    "internalType": "address",
                    "name": "",
                    "type": "address"
                }
            ],
            "stateMutability": "view",
            "type": "function"
        },
        {
            "inputs": [],
            "name": "getImplementation",
            "outputs": [
                {
                    "internalType": "address",
                    "name": "",
                    "type": "address"
                }
            ],
            "stateMutability": "view",
            "type": "function"
        },
        {
            "inputs": [
                {
                    "internalType": "address",
                    "name": "_newAdmin",
                    "type": "address"
                }
            ],
            "name": "setAdmin",
            "outputs": [],
            "stateMutability": "nonpayable",
            "type": "function"
        },
        {
            "inputs": [
                {
                    "internalType": "address",
                    "name": "_newimplement",
                    "type": "address"
                }
            ],
            "name": "upgradeTo",
            "outputs": [],
            "stateMutability": "nonpayable",
            "type": "function"
        },
        {
            "inputs": [
                {
                    "internalType": "address",
                    "name": "_newimplement",
                    "type": "address"
                },
                {
                    "internalType": "bytes",
                    "name": "_data",
                    "type": "bytes"
                }
            ],
            "name": "upgradeToAndCall",
            "outputs": [],
            "stateMutability": "nonpayable",
            "type": "function"
        },
        {
            "stateMutability": "payable",
            "type": "receive"
        }
    ],
    "bytecode": "0x60806040523480156200001157600080fd5b5060405162000e6b38038062000e6b83398101604081905262000034916200048f565b81816200006360017f360894a13ba1a3210667c828492db98dca3e2076cc3735a920a3ca505d382bbd620005be565b60008051602062000e24833981519152146200008f57634e487b7160e01b600052600160045260246000fd5b6200009d82826000620000b4565b50620000ab905083620000f1565b50505062000627565b620000bf836200014c565b600082511180620000cd5750805b15620000ec57620000ea83836200018e60201b6200020c1760201c565b505b505050565b7f7e644d79422f17c01e4894b5f4f588d331ebfa28653d42ae832dc59e38c9798f6200011c620001bd565b604080516001600160a01b03928316815291841660208301520160405180910390a16200014981620001f6565b50565b6200015781620002ab565b6040516001600160a01b038216907fbc7cd75a20ee27fd9adebab32041f755214dbc6bffa90cc0225b39da2e5c2d3b90600090a250565b6060620001b6838360405180606001604052806027815260200162000e44602791396200034e565b9392505050565b6000620001e760008051602062000e0483398151915260001b6200042b60201b620002381760201c565b546001600160a01b0316919050565b6001600160a01b038116620002615760405162461bcd60e51b815260206004820152602660248201527f455243313936373a206e65772061646d696e20697320746865207a65726f206160448201526564647265737360d01b60648201526084015b60405180910390fd5b806200028a60008051602062000e0483398151915260001b6200042b60201b620002381760201c565b80546001600160a01b0319166001600160a01b039290921691909117905550565b620002c1816200042e60201b6200023b1760201c565b620003255760405162461bcd60e51b815260206004820152602d60248201527f455243313936373a206e657720696d706c656d656e746174696f6e206973206e60448201526c1bdd08184818dbdb9d1c9858dd609a1b606482015260840162000258565b806200028a60008051602062000e2483398151915260001b6200042b60201b620002381760201c565b6060833b620003af5760405162461bcd60e51b815260206004820152602660248201527f416464726573733a2064656c65676174652063616c6c20746f206e6f6e2d636f6044820152651b9d1c9858dd60d21b606482015260840162000258565b600080856001600160a01b031685604051620003cc91906200056b565b600060405180830381855af49150503d806000811462000409576040519150601f19603f3d011682016040523d82523d6000602084013e6200040e565b606091505b5090925090506200042182828662000434565b9695505050505050565b90565b3b151590565b6060831562000445575081620001b6565b825115620004565782518084602001fd5b8160405162461bcd60e51b815260040162000258919062000589565b80516001600160a01b03811681146200048a57600080fd5b919050565b600080600060608486031215620004a4578283fd5b620004af8462000472565b9250620004bf6020850162000472565b60408501519092506001600160401b0380821115620004dc578283fd5b818601915086601f830112620004f0578283fd5b81518181111562000505576200050562000611565b604051601f8201601f19908116603f0116810190838211818310171562000530576200053062000611565b8160405282815289602084870101111562000549578586fd5b6200055c836020830160208801620005e2565b80955050505050509250925092565b600082516200057f818460208701620005e2565b9190910192915050565b6020815260008251806020840152620005aa816040850160208701620005e2565b601f01601f19169190910160400192915050565b600082821015620005dd57634e487b7160e01b81526011600452602481fd5b500390565b60005b83811015620005ff578181015183820152602001620005e5565b83811115620000ea5750506000910152565b634e487b7160e01b600052604160045260246000fd5b6107cd80620006376000396000f3fe60806040526004361061004e5760003560e01c80633659cfe6146100655780634f1ef286146100855780636e9960c3146100a5578063704b6c02146100d6578063aaf10f42146100f65761005d565b3661005d5761005b61010b565b005b61005b61010b565b34801561007157600080fd5b5061005b6100803660046105e1565b61011d565b34801561009157600080fd5b5061005b6100a03660046105fb565b61016a565b3480156100b157600080fd5b506100ba6101b2565b6040516001600160a01b03909116815260200160405180910390f35b3480156100e257600080fd5b5061005b6100f13660046105e1565b6101c1565b34801561010257600080fd5b506100ba610202565b61011b610116610202565b610241565b565b61012561026a565b6001600160a01b0316336001600160a01b03161461015e5760405162461bcd60e51b815260040161015590610707565b60405180910390fd5b6101678161029d565b50565b61017261026a565b6001600160a01b0316336001600160a01b0316146101a25760405162461bcd60e51b815260040161015590610707565b6101ae828260006102dd565b5050565b60006101bc61026a565b905090565b6101c961026a565b6001600160a01b0316336001600160a01b0316146101f95760405162461bcd60e51b815260040161015590610707565b61016781610308565b60006101bc61035c565b6060610231838360405180606001604052806027815260200161077160279139610384565b9392505050565b90565b3b151590565b3660008037600080366000845af43d6000803e808015610260573d6000f35b3d6000fd5b505050565b60007fb53127684a568b3173ae13b9f8a6016e243e63b6e8ee1178d6a717850b5d61035b546001600160a01b0316919050565b6102a681610458565b6040516001600160a01b038216907fbc7cd75a20ee27fd9adebab32041f755214dbc6bffa90cc0225b39da2e5c2d3b90600090a250565b6102e68361029d565b6000825111806102f35750805b1561026557610302838361020c565b50505050565b7f7e644d79422f17c01e4894b5f4f588d331ebfa28653d42ae832dc59e38c9798f61033161026a565b604080516001600160a01b03928316815291841660208301520160405180910390a161016781610500565b60007f360894a13ba1a3210667c828492db98dca3e2076cc3735a920a3ca505d382bbc61028e565b6060833b6103e35760405162461bcd60e51b815260206004820152602660248201527f416464726573733a2064656c65676174652063616c6c20746f206e6f6e2d636f6044820152651b9d1c9858dd60d21b6064820152608401610155565b600080856001600160a01b0316856040516103fe91906106b8565b600060405180830381855af49150503d8060008114610439576040519150601f19603f3d011682016040523d82523d6000602084013e61043e565b606091505b509150915061044e82828661058c565b9695505050505050565b803b6104bc5760405162461bcd60e51b815260206004820152602d60248201527f455243313936373a206e657720696d706c656d656e746174696f6e206973206e60448201526c1bdd08184818dbdb9d1c9858dd609a1b6064820152608401610155565b807f360894a13ba1a3210667c828492db98dca3e2076cc3735a920a3ca505d382bbc5b80546001600160a01b0319166001600160a01b039290921691909117905550565b6001600160a01b0381166105655760405162461bcd60e51b815260206004820152602660248201527f455243313936373a206e65772061646d696e20697320746865207a65726f206160448201526564647265737360d01b6064820152608401610155565b807fb53127684a568b3173ae13b9f8a6016e243e63b6e8ee1178d6a717850b5d61036104df565b6060831561059b575081610231565b8251156105ab5782518084602001fd5b8160405162461bcd60e51b815260040161015591906106d4565b80356001600160a01b03811681146105dc57600080fd5b919050565b6000602082840312156105f2578081fd5b610231826105c5565b6000806040838503121561060d578081fd5b610616836105c5565b9150602083013567ffffffffffffffff80821115610632578283fd5b818501915085601f830112610645578283fd5b8135818111156106575761065761075a565b604051601f8201601f19908116603f0116810190838211818310171561067f5761067f61075a565b81604052828152886020848701011115610697578586fd5b82602086016020830137856020848301015280955050505050509250929050565b600082516106ca81846020870161072e565b9190910192915050565b60208152600082518060208401526106f381604085016020870161072e565b601f01601f19169190910160400192915050565b6020808252600d908201526c3737ba103a34329030b236b4b760991b604082015260600190565b60005b83811015610749578181015183820152602001610731565b838111156103025750506000910152565b634e487b7160e01b600052604160045260246000fdfe416464726573733a206c6f772d6c6576656c2064656c65676174652063616c6c206661696c6564a26469706673582212203667ae92ce9531f10f4ff937d7ef872c9446d851aaad6ac3212a0a2e739ae00e64736f6c63430008040033b53127684a568b3173ae13b9f8a6016e243e63b6e8ee1178d6a717850b5d6103360894a13ba1a3210667c828492db98dca3e2076cc3735a920a3ca505d382bbc416464726573733a206c6f772d6c6576656c2064656c65676174652063616c6c206661696c6564",
    "linkReferences": {},
    "deployedLinkReferences": {}
}